{
  "_format": "hh-sol-artifact-1",
  "contractName": "TXBridge",
  "sourceName": "contracts/TXBridge.sol",
  "abi": [
    {
      "inputs": [],
      "stateMutability": "nonpayable",
      "type": "constructor"
    },
    {
      "inputs": [],
      "name": "AccessControlBadConfirmation",
      "type": "error"
    },
    {
      "inputs": [
        {
          "internalType": "address",
          "name": "account",
          "type": "address"
        },
        {
          "internalType": "bytes32",
          "name": "neededRole",
          "type": "bytes32"
        }
      ],
      "name": "AccessControlUnauthorizedAccount",
      "type": "error"
    },
    {
      "inputs": [
        {
          "internalType": "uint256",
          "name": "amount",
          "type": "uint256"
        },
        {
          "internalType": "uint256",
          "name": "maximum",
          "type": "uint256"
        }
      ],
      "name": "AmountAboveMaximum",
      "type": "error"
    },
    {
      "inputs": [
        {
          "internalType": "uint256",
          "name": "amount",
          "type": "uint256"
        },
        {
          "internalType": "uint256",
          "name": "minimum",
          "type": "uint256"
        }
      ],
      "name": "AmountBelowMinimum",
      "type": "error"
    },
    {
      "inputs": [],
      "name": "EmptyString",
      "type": "error"
    },
    {
      "inputs": [],
      "name": "EnforcedPause",
      "type": "error"
    },
    {
      "inputs": [],
      "name": "ExpectedPause",
      "type": "error"
    },
    {
      "inputs": [],
      "name": "InvalidAmount",
      "type": "error"
    },
    {
      "inputs": [],
      "name": "InvalidInitialization",
      "type": "error"
    },
    {
      "inputs": [],
      "name": "InvalidTxAddress",
      "type": "error"
    },
    {
      "inputs": [],
      "name": "NotInitializing",
      "type": "error"
    },
    {
      "inputs": [],
      "name": "ReentrancyGuardReentrantCall",
      "type": "error"
    },
    {
      "inputs": [],
      "name": "ZeroAddress",
      "type": "error"
    },
    {
      "anonymous": false,
      "inputs": [
        {
          "indexed": false,
          "internalType": "uint64",
          "name": "version",
          "type": "uint64"
        }
      ],
      "name": "Initialized",
      "type": "event"
    },
    {
      "anonymous": false,
      "inputs": [
        {
          "indexed": false,
          "internalType": "address",
          "name": "account",
          "type": "address"
        }
      ],
      "name": "Paused",
      "type": "event"
    },
    {
      "anonymous": false,
      "inputs": [
        {
          "indexed": true,
          "internalType": "bytes32",
          "name": "role",
          "type": "bytes32"
        },
        {
          "indexed": true,
          "internalType": "bytes32",
          "name": "previousAdminRole",
          "type": "bytes32"
        },
        {
          "indexed": true,
          "internalType": "bytes32",
          "name": "newAdminRole",
          "type": "bytes32"
        }
      ],
      "name": "RoleAdminChanged",
      "type": "event"
    },
    {
      "anonymous": false,
      "inputs": [
        {
          "indexed": true,
          "internalType": "bytes32",
          "name": "role",
          "type": "bytes32"
        },
        {
          "indexed": true,
          "internalType": "address",
          "name": "account",
          "type": "address"
        },
        {
          "indexed": true,
          "internalType": "address",
          "name": "sender",
          "type": "address"
        }
      ],
      "name": "RoleGranted",
      "type": "event"
    },
    {
      "anonymous": false,
      "inputs": [
        {
          "indexed": true,
          "internalType": "bytes32",
          "name": "role",
          "type": "bytes32"
        },
        {
          "indexed": true,
          "internalType": "address",
          "name": "account",
          "type": "address"
        },
        {
          "indexed": true,
          "internalType": "address",
          "name": "sender",
          "type": "address"
        }
      ],
      "name": "RoleRevoked",
      "type": "event"
    },
    {
      "anonymous": false,
      "inputs": [
        {
          "indexed": true,
          "internalType": "address",
          "name": "from",
          "type": "address"
        },
        {
          "indexed": false,
          "internalType": "string",
          "name": "txAddress",
          "type": "string"
        },
        {
          "indexed": false,
          "internalType": "uint256",
          "name": "amount",
          "type": "uint256"
        },
        {
          "indexed": false,
          "internalType": "uint256",
          "name": "timestamp",
          "type": "uint256"
        }
      ],
      "name": "SentToTxChain",
      "type": "event"
    },
    {
      "anonymous": false,
      "inputs": [
        {
          "indexed": false,
          "internalType": "address",
          "name": "oldToken",
          "type": "address"
        },
        {
          "indexed": false,
          "internalType": "address",
          "name": "newToken",
          "type": "address"
        }
      ],
      "name": "TokenUpdated",
      "type": "event"
    },
    {
      "anonymous": false,
      "inputs": [
        {
          "indexed": false,
          "internalType": "address",
          "name": "account",
          "type": "address"
        }
      ],
      "name": "Unpaused",
      "type": "event"
    },
    {
      "inputs": [],
      "name": "DEFAULT_ADMIN_ROLE",
      "outputs": [
        {
          "internalType": "bytes32",
          "name": "",
          "type": "bytes32"
        }
      ],
      "stateMutability": "view",
      "type": "function"
    },
    {
      "inputs": [],
      "name": "OPERATOR_ROLE",
      "outputs": [
        {
          "internalType": "bytes32",
          "name": "",
          "type": "bytes32"
        }
      ],
      "stateMutability": "view",
      "type": "function"
    },
    {
      "inputs": [],
      "name": "addressPrefix",
      "outputs": [
        {
          "internalType": "string",
          "name": "",
          "type": "string"
        }
      ],
      "stateMutability": "view",
      "type": "function"
    },
    {
      "inputs": [
        {
          "internalType": "bytes32",
          "name": "role",
          "type": "bytes32"
        }
      ],
      "name": "getRoleAdmin",
      "outputs": [
        {
          "internalType": "bytes32",
          "name": "",
          "type": "bytes32"
        }
      ],
      "stateMutability": "view",
      "type": "function"
    },
    {
      "inputs": [
        {
          "internalType": "bytes32",
          "name": "role",
          "type": "bytes32"
        },
        {
          "internalType": "address",
          "name": "account",
          "type": "address"
        }
      ],
      "name": "grantRole",
      "outputs": [],
      "stateMutability": "nonpayable",
      "type": "function"
    },
    {
      "inputs": [
        {
          "internalType": "bytes32",
          "name": "role",
          "type": "bytes32"
        },
        {
          "internalType": "address",
          "name": "account",
          "type": "address"
        }
      ],
      "name": "hasRole",
      "outputs": [
        {
          "internalType": "bool",
          "name": "",
          "type": "bool"
        }
      ],
      "stateMutability": "view",
      "type": "function"
    },
    {
      "inputs": [
        {
          "internalType": "address",
          "name": "_token",
          "type": "address"
        },
        {
          "internalType": "address",
          "name": "_admin",
          "type": "address"
        },
        {
          "internalType": "uint256",
          "name": "_minAmount",
          "type": "uint256"
        },
        {
          "internalType": "uint256",
          "name": "_maxAmount",
          "type": "uint256"
        },
        {
          "internalType": "string",
          "name": "_addressPrefix",
          "type": "string"
        }
      ],
      "name": "initialize",
      "outputs": [],
      "stateMutability": "nonpayable",
      "type": "function"
    },
    {
      "inputs": [
        {
          "internalType": "string",
          "name": "txAddress",
          "type": "string"
        }
      ],
      "name": "isValidTxAddress",
      "outputs": [
        {
          "internalType": "bool",
          "name": "",
          "type": "bool"
        }
      ],
      "stateMutability": "view",
      "type": "function"
    },
    {
      "inputs": [],
      "name": "maxAmount",
      "outputs": [
        {
          "internalType": "uint256",
          "name": "",
          "type": "uint256"
        }
      ],
      "stateMutability": "view",
      "type": "function"
    },
    {
      "inputs": [],
      "name": "minAmount",
      "outputs": [
        {
          "internalType": "uint256",
          "name": "",
          "type": "uint256"
        }
      ],
      "stateMutability": "view",
      "type": "function"
    },
    {
      "inputs": [],
      "name": "pause",
      "outputs": [],
      "stateMutability": "nonpayable",
      "type": "function"
    },
    {
      "inputs": [],
      "name": "paused",
      "outputs": [
        {
          "internalType": "bool",
          "name": "",
          "type": "bool"
        }
      ],
      "stateMutability": "view",
      "type": "function"
    },
    {
      "inputs": [
        {
          "internalType": "bytes32",
          "name": "role",
          "type": "bytes32"
        },
        {
          "internalType": "address",
          "name": "callerConfirmation",
          "type": "address"
        }
      ],
      "name": "renounceRole",
      "outputs": [],
      "stateMutability": "nonpayable",
      "type": "function"
    },
    {
      "inputs": [
        {
          "internalType": "bytes32",
          "name": "role",
          "type": "bytes32"
        },
        {
          "internalType": "address",
          "name": "account",
          "type": "address"
        }
      ],
      "name": "revokeRole",
      "outputs": [],
      "stateMutability": "nonpayable",
      "type": "function"
    },
    {
      "inputs": [
        {
          "internalType": "uint256",
          "name": "amount",
          "type": "uint256"
        },
        {
          "internalType": "string",
          "name": "txAddress",
          "type": "string"
        }
      ],
      "name": "sendToTxChain",
      "outputs": [],
      "stateMutability": "nonpayable",
      "type": "function"
    },
    {
      "inputs": [
        {
          "internalType": "string",
          "name": "_addressPrefix",
          "type": "string"
        }
      ],
      "name": "setAddressPrefix",
      "outputs": [],
      "stateMutability": "nonpayable",
      "type": "function"
    },
    {
      "inputs": [
        {
          "internalType": "uint256",
          "name": "_maxAmount",
          "type": "uint256"
        }
      ],
      "name": "setMaxAmount",
      "outputs": [],
      "stateMutability": "nonpayable",
      "type": "function"
    },
    {
      "inputs": [
        {
          "internalType": "uint256",
          "name": "_minAmount",
          "type": "uint256"
        }
      ],
      "name": "setMinAmount",
      "outputs": [],
      "stateMutability": "nonpayable",
      "type": "function"
    },
    {
      "inputs": [
        {
          "internalType": "address",
          "name": "_token",
          "type": "address"
        }
      ],
      "name": "setToken",
      "outputs": [],
      "stateMutability": "nonpayable",
      "type": "function"
    },
    {
      "inputs": [
        {
          "internalType": "bytes4",
          "name": "interfaceId",
          "type": "bytes4"
        }
      ],
      "name": "supportsInterface",
      "outputs": [
        {
          "internalType": "bool",
          "name": "",
          "type": "bool"
        }
      ],
      "stateMutability": "view",
      "type": "function"
    },
    {
      "inputs": [],
      "name": "token",
      "outputs": [
        {
          "internalType": "contract ITXToken",
          "name": "",
          "type": "address"
        }
      ],
      "stateMutability": "view",
      "type": "function"
    },
    {
      "inputs": [],
      "name": "unpause",
      "outputs": [],
      "stateMutability": "nonpayable",
      "type": "function"
    }
  ],
  "bytecode": "0x6080604052348015600f57600080fd5b506016601a565b60ca565b7ff0c57e16840df040f15088dc2f81fe391c3923bec73e23a9662efc9c229c6a00805468010000000000000000900460ff161560695760405163f92ee8a960e01b815260040160405180910390fd5b80546001600160401b039081161460c75780546001600160401b0319166001600160401b0390811782556040519081527fc7f505b2f371ae2175ee4913f4499e1f2633a7b5936321eed1cdaeb6115181d29060200160405180910390a15b50565b6114f2806100d96000396000f3fe608060405234801561001057600080fd5b50600436106101425760003560e01c80638e737af2116100b8578063a254c0411161007c578063a254c0411461026c578063b8e4e61d1461027f578063d547741f14610292578063f0e0de8f146102a5578063f5b541a6146102ba578063fc0c546a146102cf57600080fd5b80638e737af2146102225780638ea33a331461023557806391d14854146102485780639b2cb5d81461025b578063a217fddf1461026457600080fd5b80633f4ba83a1161010a5780633f4ba83a146101cb5780634fe47f70146101d35780635c975abb146101e65780635f48f393146101fe5780638456cb5914610207578063897b06371461020f57600080fd5b806301ffc9a714610147578063144fa6d71461016f578063248a9ca3146101845780632f2ff15d146101a557806336568abe146101b8575b600080fd5b61015a61015536600461103d565b6102fa565b60405190151581526020015b60405180910390f35b61018261017d36600461108a565b610331565b005b6101976101923660046110a5565b6103cd565b604051908152602001610166565b6101826101b33660046110be565b6103ef565b6101826101c63660046110be565b610411565b610182610449565b6101826101e13660046110a5565b61046c565b60008051602061149d8339815191525460ff1661015a565b61019760025481565b6101826104a0565b61018261021d3660046110a5565b6104c0565b610182610230366004611133565b6104f4565b61015a6102433660046111ab565b6106b9565b61015a6102563660046110be565b6106fa565b61019760015481565b610197600081565b61018261027a3660046111ed565b610732565b61018261028d3660046111ab565b6108ac565b6101826102a03660046110be565b6108e6565b6102ad610902565b6040516101669190611239565b61019760008051602061145d83398151915281565b6000546102e2906001600160a01b031681565b6040516001600160a01b039091168152602001610166565b60006001600160e01b03198216637965db0b60e01b148061032b57506301ffc9a760e01b6001600160e01b03198316145b92915050565b600061033c81610990565b6001600160a01b0382166103635760405163d92e233d60e01b815260040160405180910390fd5b600054604080516001600160a01b03928316815291841660208301527f0b1186973f810894b87ab0bfbee422fddcaad21b46dc705a561451bbb6bac117910160405180910390a150600080546001600160a01b0319166001600160a01b0392909216919091179055565b600090815260008051602061147d833981519152602052604090206001015490565b6103f8826103cd565b61040181610990565b61040b838361099a565b50505050565b6001600160a01b038116331461043a5760405163334bd91960e11b815260040160405180910390fd5b6104448282610a3f565b505050565b60008051602061145d83398151915261046181610990565b610469610abb565b50565b600061047781610990565b60015482101561049a5760405163162908e360e11b815260040160405180910390fd5b50600255565b60008051602061145d8339815191526104b881610990565b610469610b1b565b60006104cb81610990565b6002548211156104ee5760405163162908e360e11b815260040160405180910390fd5b50600155565b60006104fe610b64565b805490915060ff600160401b820416159067ffffffffffffffff166000811580156105265750825b905060008267ffffffffffffffff1660011480156105435750303b155b905081158015610551575080155b1561056f5760405163f92ee8a960e01b815260040160405180910390fd5b845467ffffffffffffffff19166001178555831561059957845460ff60401b1916600160401b1785555b6001600160a01b038b1615806105b657506001600160a01b038a16155b156105d45760405163d92e233d60e01b815260040160405180910390fd5b60008690036105f65760405163ecd7b0d160e01b815260040160405180910390fd5b6105fe610b8d565b610606610b8d565b61060e610b97565b600080546001600160a01b0319166001600160a01b038d16179055600189905560028890556003610640878983611325565b5061064c60008b61099a565b5061066560008051602061145d8339815191528b61099a565b5083156106ac57845460ff60401b19168555604051600181527fc7f505b2f371ae2175ee4913f4499e1f2633a7b5936321eed1cdaeb6115181d29060200160405180910390a15b5050505050505050505050565b60008060008060006106cb8787610ba7565b93509350935093508380156106dd5750825b80156106e65750815b80156106ef5750805b979650505050505050565b600091825260008051602061147d833981519152602090815260408084206001600160a01b0393909316845291905290205460ff1690565b61073a610dc3565b610742610e0d565b826000036107635760405163162908e360e11b815260040160405180910390fd5b60015483101561079d5760015460405163180cb56f60e11b8152610794918591600401918252602082015260400190565b60405180910390fd5b6002548311156107ce57600254604051632a1e4ad560e21b8152610794918591600401918252602082015260400190565b6107d88282610e3e565b600054604051632b8c49e360e01b8152336004820152602481018590526001600160a01b0390911690632b8c49e390604401600060405180830381600087803b15801561082457600080fd5b505af1158015610838573d6000803e3d6000fd5b50505050336001600160a01b03167fe7ebb1e7e18f88c3013a63783d68f6408bff3289cf1f9a7bc7e14217f1ebbaf58383864260405161087b94939291906113e5565b60405180910390a261044460017f9b779b17422d0df92223018b32b4d1fa46e071723d6817e2486d003becc55f0055565b60006108b781610990565b60008290036108d95760405163ecd7b0d160e01b815260040160405180910390fd5b600361040b838583611325565b6108ef826103cd565b6108f881610990565b61040b8383610a3f565b6003805461090f9061129d565b80601f016020809104026020016040519081016040528092919081815260200182805461093b9061129d565b80156109885780601f1061095d57610100808354040283529160200191610988565b820191906000526020600020905b81548152906001019060200180831161096b57829003601f168201915b505050505081565b6104698133610ebf565b600060008051602061147d8339815191526109b584846106fa565b610a35576000848152602082815260408083206001600160a01b03871684529091529020805460ff191660011790556109eb3390565b6001600160a01b0316836001600160a01b0316857f2f8788117e7eff1d82e926ec794901d17c78024a50270940304540a733656f0d60405160405180910390a4600191505061032b565b600091505061032b565b600060008051602061147d833981519152610a5a84846106fa565b15610a35576000848152602082815260408083206001600160a01b0387168085529252808320805460ff1916905551339287917ff6391f5c32d9c69d2a47ea670b442974b53935d1edc7fd64eb21e047a839171b9190a4600191505061032b565b610ac3610efc565b60008051602061149d833981519152805460ff191681557f5db9ee0a495bf2e6ff9c91a7834c1ba4fdd244a5e8aa4e537bd38aeae4b073aa335b6040516001600160a01b03909116815260200160405180910390a150565b610b23610e0d565b60008051602061149d833981519152805460ff191660011781557f62e78cea01bee320cd4e420270b5ea74000d11b0c9f74754ebdbfc544b05a25833610afd565b6000807ff0c57e16840df040f15088dc2f81fe391c3923bec73e23a9662efc9c229c6a0061032b565b610b95610f2c565b565b610b9f610f2c565b610b95610f51565b600080600080600086868080601f0160208091040260200160405190810160405280939291908181526020018383808284376000920182905250600380549596509094909350610bf99250905061129d565b80601f0160208091040260200160405190810160405280929190818152602001828054610c259061129d565b8015610c725780601f10610c4757610100808354040283529160200191610c72565b820191906000526020600020905b815481529060010190602001808311610c5557829003601f168201915b50505050509050600081516001610c899190611425565b610c94906026611425565b905080835114610cb4576000806000809650965096509650505050610dba565b600196506001955060005b8251811015610d2657828181518110610cda57610cda611446565b602001015160f81c60f81b6001600160f81b031916848281518110610d0157610d01611446565b01602001516001600160f81b03191614610d1e5760009650610d26565b600101610cbf565b5082825181518110610d3a57610d3a611446565b602001015160f81c60f81b6001600160f81b031916603160f81b14945060019350600082516001610d6b9190611425565b90505b8351811015610db557610da0848281518110610d8c57610d8c611446565b01602001516001600160f81b031916610f59565b610dad5760009450610db5565b600101610d6e565b505050505b92959194509250565b7f9b779b17422d0df92223018b32b4d1fa46e071723d6817e2486d003becc55f00805460011901610e0757604051633ee5aeb560e01b815260040160405180910390fd5b60029055565b60008051602061149d8339815191525460ff1615610b955760405163d93c066560e01b815260040160405180910390fd5b600080600080610e4e8686610ba7565b9350935093509350831580610e61575082155b80610e6a575081155b80610e73575080155b15610e9157604051630884dd8b60e21b815260040160405180910390fd5b505050505050565b60017f9b779b17422d0df92223018b32b4d1fa46e071723d6817e2486d003becc55f0055565b610ec982826106fa565b610ef85760405163e2517d3f60e01b81526001600160a01b038216600482015260248101839052604401610794565b5050565b60008051602061149d8339815191525460ff16610b9557604051638dfc202b60e01b815260040160405180910390fd5b610f34611023565b610b9557604051631afcd79f60e31b815260040160405180910390fd5b610e99610f2c565b6000606160f81b6001600160f81b0319831610801590610f875750603d60f91b6001600160f81b0319831611155b8015610fa15750603160f91b6001600160f81b0319831614155b8015610fbb5750606960f81b6001600160f81b0319831614155b8015610fd55750606f60f81b6001600160f81b0319831614155b8061032b5750600360fc1b6001600160f81b03198316108015906110075750603960f81b6001600160f81b0319831611155b801561032b5750506001600160f81b031916603160f81b141590565b600061102d610b64565b54600160401b900460ff16919050565b60006020828403121561104f57600080fd5b81356001600160e01b03198116811461106757600080fd5b9392505050565b80356001600160a01b038116811461108557600080fd5b919050565b60006020828403121561109c57600080fd5b6110678261106e565b6000602082840312156110b757600080fd5b5035919050565b600080604083850312156110d157600080fd5b823591506110e16020840161106e565b90509250929050565b60008083601f8401126110fc57600080fd5b50813567ffffffffffffffff81111561111457600080fd5b60208301915083602082850101111561112c57600080fd5b9250929050565b60008060008060008060a0878903121561114c57600080fd5b6111558761106e565b95506111636020880161106e565b94506040870135935060608701359250608087013567ffffffffffffffff81111561118d57600080fd5b61119989828a016110ea565b979a9699509497509295939492505050565b600080602083850312156111be57600080fd5b823567ffffffffffffffff8111156111d557600080fd5b6111e1858286016110ea565b90969095509350505050565b60008060006040848603121561120257600080fd5b83359250602084013567ffffffffffffffff81111561122057600080fd5b61122c868287016110ea565b9497909650939450505050565b602081526000825180602084015260005b81811015611267576020818601810151604086840101520161124a565b506000604082850101526040601f19601f83011684010191505092915050565b634e487b7160e01b600052604160045260246000fd5b600181811c908216806112b157607f821691505b6020821081036112d157634e487b7160e01b600052602260045260246000fd5b50919050565b601f82111561044457806000526020600020601f840160051c810160208510156112fe5750805b601f840160051c820191505b8181101561131e576000815560010161130a565b5050505050565b67ffffffffffffffff83111561133d5761133d611287565b6113518361134b835461129d565b836112d7565b6000601f841160018114611385576000851561136d5750838201355b600019600387901b1c1916600186901b17835561131e565b600083815260209020601f19861690835b828110156113b65786850135825560209485019460019092019101611396565b50868210156113d35760001960f88860031b161c19848701351681555b505060018560011b0183555050505050565b606081528360608201528385608083013760006080858301015260006080601f19601f870116830101905083602083015282604083015295945050505050565b8082018082111561032b57634e487b7160e01b600052601160045260246000fd5b634e487b7160e01b600052603260045260246000fdfe97667070c54ef182b0f5858b034beac1b6f3089aa2d3188bb1e8929f4fa9b92902dd7bc7dec4dceedda775e58dd541e08a116c6c53815c0bd028192f7b626800cd5ed15c6e187e77e9aee88184c21f4f2182ab5827cb3b7e07fbedcd63f03300a2646970667358221220a59b81955467fd53021fa5bc4e5ee8377990d37f97d3cf4d4edf2b2b279dad9364736f6c634300081c0033",
  "linkReferences": {},
  "deployedLinkReferences": {}
}