{
  "_format": "hh-sol-artifact-1",
  "contractName": "TXBridge",
  "sourceName": "contracts/TXBridge.sol",
  "abi": [
    {
      "inputs": [],
      "stateMutability": "nonpayable",
      "type": "constructor"
    },
    {
      "inputs": [],
      "name": "AccessControlBadConfirmation",
      "type": "error"
    },
    {
      "inputs": [
        {
          "internalType": "address",
          "name": "account",
          "type": "address"
        },
        {
          "internalType": "bytes32",
          "name": "neededRole",
          "type": "bytes32"
        }
      ],
      "name": "AccessControlUnauthorizedAccount",
      "type": "error"
    },
    {
      "inputs": [
        {
          "internalType": "uint256",
          "name": "amount",
          "type": "uint256"
        },
        {
          "internalType": "uint256",
          "name": "maximum",
          "type": "uint256"
        }
      ],
      "name": "AmountAboveMaximum",
      "type": "error"
    },
    {
      "inputs": [
        {
          "internalType": "uint256",
          "name": "amount",
          "type": "uint256"
        },
        {
          "internalType": "uint256",
          "name": "minimum",
          "type": "uint256"
        }
      ],
      "name": "AmountBelowMinimum",
      "type": "error"
    },
    {
      "inputs": [],
      "name": "EmptyString",
      "type": "error"
    },
    {
      "inputs": [],
      "name": "EnforcedPause",
      "type": "error"
    },
    {
      "inputs": [],
      "name": "ExpectedPause",
      "type": "error"
    },
    {
      "inputs": [],
      "name": "InvalidAddressDataLength",
      "type": "error"
    },
    {
      "inputs": [],
      "name": "InvalidAddressPrefix",
      "type": "error"
    },
    {
      "inputs": [],
      "name": "InvalidAmount",
      "type": "error"
    },
    {
      "inputs": [],
      "name": "InvalidBech32Character",
      "type": "error"
    },
    {
      "inputs": [],
      "name": "InvalidChainId",
      "type": "error"
    },
    {
      "inputs": [],
      "name": "InvalidInitialization",
      "type": "error"
    },
    {
      "inputs": [],
      "name": "NotInitializing",
      "type": "error"
    },
    {
      "inputs": [],
      "name": "ReentrancyGuardReentrantCall",
      "type": "error"
    },
    {
      "inputs": [],
      "name": "ZeroAddress",
      "type": "error"
    },
    {
      "anonymous": false,
      "inputs": [
        {
          "indexed": true,
          "internalType": "address",
          "name": "from",
          "type": "address"
        },
        {
          "indexed": false,
          "internalType": "string",
          "name": "destinationPayload",
          "type": "string"
        },
        {
          "indexed": false,
          "internalType": "uint256",
          "name": "amount",
          "type": "uint256"
        },
        {
          "indexed": false,
          "internalType": "uint256",
          "name": "timestamp",
          "type": "uint256"
        }
      ],
      "name": "BridgeInitiated",
      "type": "event"
    },
    {
      "anonymous": false,
      "inputs": [
        {
          "indexed": false,
          "internalType": "uint64",
          "name": "version",
          "type": "uint64"
        }
      ],
      "name": "Initialized",
      "type": "event"
    },
    {
      "anonymous": false,
      "inputs": [
        {
          "indexed": false,
          "internalType": "address",
          "name": "account",
          "type": "address"
        }
      ],
      "name": "Paused",
      "type": "event"
    },
    {
      "anonymous": false,
      "inputs": [
        {
          "indexed": true,
          "internalType": "bytes32",
          "name": "role",
          "type": "bytes32"
        },
        {
          "indexed": true,
          "internalType": "bytes32",
          "name": "previousAdminRole",
          "type": "bytes32"
        },
        {
          "indexed": true,
          "internalType": "bytes32",
          "name": "newAdminRole",
          "type": "bytes32"
        }
      ],
      "name": "RoleAdminChanged",
      "type": "event"
    },
    {
      "anonymous": false,
      "inputs": [
        {
          "indexed": true,
          "internalType": "bytes32",
          "name": "role",
          "type": "bytes32"
        },
        {
          "indexed": true,
          "internalType": "address",
          "name": "account",
          "type": "address"
        },
        {
          "indexed": true,
          "internalType": "address",
          "name": "sender",
          "type": "address"
        }
      ],
      "name": "RoleGranted",
      "type": "event"
    },
    {
      "anonymous": false,
      "inputs": [
        {
          "indexed": true,
          "internalType": "bytes32",
          "name": "role",
          "type": "bytes32"
        },
        {
          "indexed": true,
          "internalType": "address",
          "name": "account",
          "type": "address"
        },
        {
          "indexed": true,
          "internalType": "address",
          "name": "sender",
          "type": "address"
        }
      ],
      "name": "RoleRevoked",
      "type": "event"
    },
    {
      "anonymous": false,
      "inputs": [
        {
          "indexed": false,
          "internalType": "address",
          "name": "oldToken",
          "type": "address"
        },
        {
          "indexed": false,
          "internalType": "address",
          "name": "newToken",
          "type": "address"
        }
      ],
      "name": "TokenUpdated",
      "type": "event"
    },
    {
      "anonymous": false,
      "inputs": [
        {
          "indexed": false,
          "internalType": "address",
          "name": "account",
          "type": "address"
        }
      ],
      "name": "Unpaused",
      "type": "event"
    },
    {
      "inputs": [],
      "name": "DEFAULT_ADMIN_ROLE",
      "outputs": [
        {
          "internalType": "bytes32",
          "name": "",
          "type": "bytes32"
        }
      ],
      "stateMutability": "view",
      "type": "function"
    },
    {
      "inputs": [],
      "name": "OPERATOR_ROLE",
      "outputs": [
        {
          "internalType": "bytes32",
          "name": "",
          "type": "bytes32"
        }
      ],
      "stateMutability": "view",
      "type": "function"
    },
    {
      "inputs": [],
      "name": "addressDataLength",
      "outputs": [
        {
          "internalType": "uint256",
          "name": "",
          "type": "uint256"
        }
      ],
      "stateMutability": "view",
      "type": "function"
    },
    {
      "inputs": [],
      "name": "addressPrefix",
      "outputs": [
        {
          "internalType": "string",
          "name": "",
          "type": "string"
        }
      ],
      "stateMutability": "view",
      "type": "function"
    },
    {
      "inputs": [
        {
          "internalType": "uint256",
          "name": "amount",
          "type": "uint256"
        },
        {
          "internalType": "string",
          "name": "destinationPayload",
          "type": "string"
        }
      ],
      "name": "bridge",
      "outputs": [],
      "stateMutability": "nonpayable",
      "type": "function"
    },
    {
      "inputs": [],
      "name": "chainID",
      "outputs": [
        {
          "internalType": "string",
          "name": "",
          "type": "string"
        }
      ],
      "stateMutability": "view",
      "type": "function"
    },
    {
      "inputs": [
        {
          "internalType": "bytes32",
          "name": "role",
          "type": "bytes32"
        }
      ],
      "name": "getRoleAdmin",
      "outputs": [
        {
          "internalType": "bytes32",
          "name": "",
          "type": "bytes32"
        }
      ],
      "stateMutability": "view",
      "type": "function"
    },
    {
      "inputs": [
        {
          "internalType": "bytes32",
          "name": "role",
          "type": "bytes32"
        },
        {
          "internalType": "address",
          "name": "account",
          "type": "address"
        }
      ],
      "name": "grantRole",
      "outputs": [],
      "stateMutability": "nonpayable",
      "type": "function"
    },
    {
      "inputs": [
        {
          "internalType": "bytes32",
          "name": "role",
          "type": "bytes32"
        },
        {
          "internalType": "address",
          "name": "account",
          "type": "address"
        }
      ],
      "name": "hasRole",
      "outputs": [
        {
          "internalType": "bool",
          "name": "",
          "type": "bool"
        }
      ],
      "stateMutability": "view",
      "type": "function"
    },
    {
      "inputs": [
        {
          "internalType": "address",
          "name": "_token",
          "type": "address"
        },
        {
          "internalType": "address",
          "name": "_admin",
          "type": "address"
        },
        {
          "internalType": "uint256",
          "name": "_minAmount",
          "type": "uint256"
        },
        {
          "internalType": "uint256",
          "name": "_maxAmount",
          "type": "uint256"
        },
        {
          "internalType": "string",
          "name": "_chainID",
          "type": "string"
        },
        {
          "internalType": "string",
          "name": "_addressPrefix",
          "type": "string"
        },
        {
          "internalType": "uint256",
          "name": "_addressDataLength",
          "type": "uint256"
        }
      ],
      "name": "initialize",
      "outputs": [],
      "stateMutability": "nonpayable",
      "type": "function"
    },
    {
      "inputs": [
        {
          "internalType": "string",
          "name": "destinationPayload",
          "type": "string"
        }
      ],
      "name": "isValidDestinationPayload",
      "outputs": [
        {
          "internalType": "bool",
          "name": "",
          "type": "bool"
        }
      ],
      "stateMutability": "view",
      "type": "function"
    },
    {
      "inputs": [],
      "name": "maxAmount",
      "outputs": [
        {
          "internalType": "uint256",
          "name": "",
          "type": "uint256"
        }
      ],
      "stateMutability": "view",
      "type": "function"
    },
    {
      "inputs": [],
      "name": "minAmount",
      "outputs": [
        {
          "internalType": "uint256",
          "name": "",
          "type": "uint256"
        }
      ],
      "stateMutability": "view",
      "type": "function"
    },
    {
      "inputs": [],
      "name": "pause",
      "outputs": [],
      "stateMutability": "nonpayable",
      "type": "function"
    },
    {
      "inputs": [],
      "name": "paused",
      "outputs": [
        {
          "internalType": "bool",
          "name": "",
          "type": "bool"
        }
      ],
      "stateMutability": "view",
      "type": "function"
    },
    {
      "inputs": [
        {
          "internalType": "bytes32",
          "name": "role",
          "type": "bytes32"
        },
        {
          "internalType": "address",
          "name": "callerConfirmation",
          "type": "address"
        }
      ],
      "name": "renounceRole",
      "outputs": [],
      "stateMutability": "nonpayable",
      "type": "function"
    },
    {
      "inputs": [
        {
          "internalType": "bytes32",
          "name": "role",
          "type": "bytes32"
        },
        {
          "internalType": "address",
          "name": "account",
          "type": "address"
        }
      ],
      "name": "revokeRole",
      "outputs": [],
      "stateMutability": "nonpayable",
      "type": "function"
    },
    {
      "inputs": [
        {
          "internalType": "uint256",
          "name": "_addressDataLength",
          "type": "uint256"
        }
      ],
      "name": "setAddressDataLength",
      "outputs": [],
      "stateMutability": "nonpayable",
      "type": "function"
    },
    {
      "inputs": [
        {
          "internalType": "string",
          "name": "_addressPrefix",
          "type": "string"
        }
      ],
      "name": "setAddressPrefix",
      "outputs": [],
      "stateMutability": "nonpayable",
      "type": "function"
    },
    {
      "inputs": [
        {
          "internalType": "string",
          "name": "_chainID",
          "type": "string"
        }
      ],
      "name": "setChainId",
      "outputs": [],
      "stateMutability": "nonpayable",
      "type": "function"
    },
    {
      "inputs": [
        {
          "internalType": "uint256",
          "name": "_maxAmount",
          "type": "uint256"
        }
      ],
      "name": "setMaxAmount",
      "outputs": [],
      "stateMutability": "nonpayable",
      "type": "function"
    },
    {
      "inputs": [
        {
          "internalType": "uint256",
          "name": "_minAmount",
          "type": "uint256"
        }
      ],
      "name": "setMinAmount",
      "outputs": [],
      "stateMutability": "nonpayable",
      "type": "function"
    },
    {
      "inputs": [
        {
          "internalType": "address",
          "name": "_token",
          "type": "address"
        }
      ],
      "name": "setToken",
      "outputs": [],
      "stateMutability": "nonpayable",
      "type": "function"
    },
    {
      "inputs": [
        {
          "internalType": "bytes4",
          "name": "interfaceId",
          "type": "bytes4"
        }
      ],
      "name": "supportsInterface",
      "outputs": [
        {
          "internalType": "bool",
          "name": "",
          "type": "bool"
        }
      ],
      "stateMutability": "view",
      "type": "function"
    },
    {
      "inputs": [],
      "name": "token",
      "outputs": [
        {
          "internalType": "contract ITXToken",
          "name": "",
          "type": "address"
        }
      ],
      "stateMutability": "view",
      "type": "function"
    },
    {
      "inputs": [],
      "name": "unpause",
      "outputs": [],
      "stateMutability": "nonpayable",
      "type": "function"
    }
  ],
  "bytecode": "0x6080604052348015600f57600080fd5b506016601a565b60ca565b7ff0c57e16840df040f15088dc2f81fe391c3923bec73e23a9662efc9c229c6a00805468010000000000000000900460ff161560695760405163f92ee8a960e01b815260040160405180910390fd5b80546001600160401b039081161460c75780546001600160401b0319166001600160401b0390811782556040519081527fc7f505b2f371ae2175ee4913f4499e1f2633a7b5936321eed1cdaeb6115181d29060200160405180910390a15b50565b6117a7806100d96000396000f3fe608060405234801561001057600080fd5b506004361061018e5760003560e01c8063897b0637116100de578063aaf4ce4a11610097578063d547741f11610071578063d547741f14610322578063f0e0de8f14610335578063f5b541a61461033d578063fc0c546a1461035257600080fd5b8063aaf4ce4a146102e7578063adc879e9146102fa578063b8e4e61d1461030f57600080fd5b8063897b06371461028a5780638d3cf6a51461029d57806391d14854146102b0578063983e49b3146102c35780639b2cb5d8146102d6578063a217fddf146102df57600080fd5b80633f4ba83a1161014b5780635f48f393116101255780635f48f393146102535780637973be071461025c5780638456cb591461026f578063854c78a11461027757600080fd5b80633f4ba83a146102205780634fe47f70146102285780635c975abb1461023b57600080fd5b806301ffc9a714610193578063144fa6d7146101bb578063248a9ca3146101d05780632f2ff15d146101f157806331c5a3741461020457806336568abe1461020d575b600080fd5b6101a66101a136600461129e565b61037d565b60405190151581526020015b60405180910390f35b6101ce6101c93660046112eb565b6103b4565b005b6101e36101de366004611306565b610450565b6040519081526020016101b2565b6101ce6101ff36600461131f565b610472565b6101e360055481565b6101ce61021b36600461131f565b610494565b6101ce6104cc565b6101ce610236366004611306565b6104ef565b6000805160206117528339815191525460ff166101a6565b6101e360025481565b6101ce61026a366004611394565b610523565b6101ce61055d565b6101a6610285366004611394565b61057d565b6101ce610298366004611306565b6105be565b6101ce6102ab366004611306565b6105f2565b6101a66102be36600461131f565b610624565b6101ce6102d13660046113d6565b61065c565b6101e360015481565b6101e3600081565b6101ce6102f5366004611487565b610872565b6103026109ec565b6040516101b291906114d3565b6101ce61031d366004611394565b610a7a565b6101ce61033036600461131f565b610ab4565b610302610ad0565b6101e360008051602061171283398151915281565b600054610365906001600160a01b031681565b6040516001600160a01b0390911681526020016101b2565b60006001600160e01b03198216637965db0b60e01b14806103ae57506301ffc9a760e01b6001600160e01b03198316145b92915050565b60006103bf81610add565b6001600160a01b0382166103e65760405163d92e233d60e01b815260040160405180910390fd5b600054604080516001600160a01b03928316815291841660208301527f0b1186973f810894b87ab0bfbee422fddcaad21b46dc705a561451bbb6bac117910160405180910390a150600080546001600160a01b0319166001600160a01b0392909216919091179055565b6000908152600080516020611732833981519152602052604090206001015490565b61047b82610450565b61048481610add565b61048e8383610ae7565b50505050565b6001600160a01b03811633146104bd5760405163334bd91960e11b815260040160405180910390fd5b6104c78282610b8c565b505050565b6000805160206117128339815191526104e481610add565b6104ec610c08565b50565b60006104fa81610add565b60015482101561051d5760405163162908e360e11b815260040160405180910390fd5b50600255565b600061052e81610add565b60008290036105505760405163ecd7b0d160e01b815260040160405180910390fd5b600361048e8385836115bf565b60008051602061171283398151915261057581610add565b6104ec610c68565b600080600080600061058f8787610cb1565b93509350935093508380156105a15750825b80156105aa5750815b80156105b35750805b979650505050505050565b60006105c981610add565b6002548211156105ec5760405163162908e360e11b815260040160405180910390fd5b50600155565b60006105fd81610add565b8160000361061e5760405163162908e360e11b815260040160405180910390fd5b50600555565b6000918252600080516020611732833981519152602090815260408084206001600160a01b0393909316845291905290205460ff1690565b6000610666610fa4565b805490915060ff600160401b820416159067ffffffffffffffff1660008115801561068e5750825b905060008267ffffffffffffffff1660011480156106ab5750303b155b9050811580156106b9575080155b156106d75760405163f92ee8a960e01b815260040160405180910390fd5b845467ffffffffffffffff19166001178555831561070157845460ff60401b1916600160401b1785555b6001600160a01b038e16158061071e57506001600160a01b038d16155b1561073c5760405163d92e233d60e01b815260040160405180910390fd5b881580610747575086155b156107655760405163ecd7b0d160e01b815260040160405180910390fd5b856000036107865760405163162908e360e11b815260040160405180910390fd5b61078e610fcd565b610796610fcd565b61079e610fd7565b8d6000806101000a8154816001600160a01b0302191690836001600160a01b031602179055508b6001819055508a6002819055508989600391826107e39291906115bf565b5060046107f1888a836115bf565b50600586905561080260008e610ae7565b5061081b6000805160206117128339815191528e610ae7565b50831561086257845460ff60401b19168555604051600181527fc7f505b2f371ae2175ee4913f4499e1f2633a7b5936321eed1cdaeb6115181d29060200160405180910390a15b5050505050505050505050505050565b61087a610fe7565b610882611031565b826000036108a35760405163162908e360e11b815260040160405180910390fd5b6001548310156108dd5760015460405163180cb56f60e11b81526108d4918591600401918252602082015260400190565b60405180910390fd5b60025483111561090e57600254604051632a1e4ad560e21b81526108d4918591600401918252602082015260400190565b6109188282611062565b600054604051632b8c49e360e01b8152336004820152602481018590526001600160a01b0390911690632b8c49e390604401600060405180830381600087803b15801561096457600080fd5b505af1158015610978573d6000803e3d6000fd5b50505050336001600160a01b03167fc8fc702ef75cbf37407ffc9dd8b13a87c16d721286a50b10789508f9ed97482f838386426040516109bb949392919061167f565b60405180910390a26104c760017f9b779b17422d0df92223018b32b4d1fa46e071723d6817e2486d003becc55f0055565b600380546109f990611537565b80601f0160208091040260200160405190810160405280929190818152602001828054610a2590611537565b8015610a725780601f10610a4757610100808354040283529160200191610a72565b820191906000526020600020905b815481529060010190602001808311610a5557829003601f168201915b505050505081565b6000610a8581610add565b6000829003610aa75760405163ecd7b0d160e01b815260040160405180910390fd5b600461048e8385836115bf565b610abd82610450565b610ac681610add565b61048e8383610b8c565b600480546109f990611537565b6104ec8133611120565b6000600080516020611732833981519152610b028484610624565b610b82576000848152602082815260408083206001600160a01b03871684529091529020805460ff19166001179055610b383390565b6001600160a01b0316836001600160a01b0316857f2f8788117e7eff1d82e926ec794901d17c78024a50270940304540a733656f0d60405160405180910390a460019150506103ae565b60009150506103ae565b6000600080516020611732833981519152610ba78484610624565b15610b82576000848152602082815260408083206001600160a01b0387168085529252808320805460ff1916905551339287917ff6391f5c32d9c69d2a47ea670b442974b53935d1edc7fd64eb21e047a839171b9190a460019150506103ae565b610c1061115d565b600080516020611752833981519152805460ff191681557f5db9ee0a495bf2e6ff9c91a7834c1ba4fdd244a5e8aa4e537bd38aeae4b073aa335b6040516001600160a01b03909116815260200160405180910390a150565b610c70611031565b600080516020611752833981519152805460ff191660011781557f62e78cea01bee320cd4e420270b5ea74000d11b0c9f74754ebdbfc544b05a25833610c4a565b600080600080600086868080601f0160208091040260200160405190810160405280939291908181526020018383808284376000920182905250600380549596509094909350610d0392509050611537565b80601f0160208091040260200160405190810160405280929190818152602001828054610d2f90611537565b8015610d7c5780601f10610d5157610100808354040283529160200191610d7c565b820191906000526020600020905b815481529060010190602001808311610d5f57829003601f168201915b50505050509050600060048054610d9290611537565b80601f0160208091040260200160405190810160405280929190818152602001828054610dbe90611537565b8015610e0b5780601f10610de057610100808354040283529160200191610e0b565b820191906000526020600020905b815481529060010190602001808311610dee57829003601f168201915b50505050509050600082516005548351610e2591906116d5565b610e2f91906116d5565b905080845114610e5057600080600080975097509750975050505050610f9b565b600197506001965060005b8251811015610ec257828181518110610e7657610e766116e8565b602001015160f81c60f81b6001600160f81b031916858281518110610e9d57610e9d6116e8565b01602001516001600160f81b03191614610eba5760009750610ec2565b600101610e5b565b5060019550600083518551610ed791906116fe565b905060005b8451811015610f4657848181518110610ef757610ef76116e8565b01602001516001600160f81b03191686610f1183856116d5565b81518110610f2157610f216116e8565b01602001516001600160f81b03191614610f3e5760009750610f46565b600101610edc565b508251600196505b81811015610f9457610f7f868281518110610f6b57610f6b6116e8565b01602001516001600160f81b03191661118d565b610f8c5760009650610f94565b600101610f4e565b5050505050505b92959194509250565b6000807ff0c57e16840df040f15088dc2f81fe391c3923bec73e23a9662efc9c229c6a006103ae565b610fd5611257565b565b610fdf611257565b610fd561127c565b7f9b779b17422d0df92223018b32b4d1fa46e071723d6817e2486d003becc55f0080546001190161102b57604051633ee5aeb560e01b815260040160405180910390fd5b60029055565b6000805160206117528339815191525460ff1615610fd55760405163d93c066560e01b815260040160405180910390fd5b6000806000806110728686610cb1565b9350935093509350836110985760405163930c4cf360e01b815260040160405180910390fd5b826110b6576040516357c60a5760e11b815260040160405180910390fd5b816110d457604051633d23e4d160e11b815260040160405180910390fd5b806110f257604051632325159960e11b815260040160405180910390fd5b505050505050565b60017f9b779b17422d0df92223018b32b4d1fa46e071723d6817e2486d003becc55f0055565b61112a8282610624565b6111595760405163e2517d3f60e01b81526001600160a01b0382166004820152602481018390526044016108d4565b5050565b6000805160206117528339815191525460ff16610fd557604051638dfc202b60e01b815260040160405180910390fd5b6000606160f81b6001600160f81b03198316108015906111bb5750603d60f91b6001600160f81b0319831611155b80156111d55750603160f91b6001600160f81b0319831614155b80156111ef5750606960f81b6001600160f81b0319831614155b80156112095750606f60f81b6001600160f81b0319831614155b806103ae5750600360fc1b6001600160f81b031983161080159061123b5750603960f81b6001600160f81b0319831611155b80156103ae5750506001600160f81b031916603160f81b141590565b61125f611284565b610fd557604051631afcd79f60e31b815260040160405180910390fd5b6110fa611257565b600061128e610fa4565b54600160401b900460ff16919050565b6000602082840312156112b057600080fd5b81356001600160e01b0319811681146112c857600080fd5b9392505050565b80356001600160a01b03811681146112e657600080fd5b919050565b6000602082840312156112fd57600080fd5b6112c8826112cf565b60006020828403121561131857600080fd5b5035919050565b6000806040838503121561133257600080fd5b82359150611342602084016112cf565b90509250929050565b60008083601f84011261135d57600080fd5b50813567ffffffffffffffff81111561137557600080fd5b60208301915083602082850101111561138d57600080fd5b9250929050565b600080602083850312156113a757600080fd5b823567ffffffffffffffff8111156113be57600080fd5b6113ca8582860161134b565b90969095509350505050565b600080600080600080600080600060e08a8c0312156113f457600080fd5b6113fd8a6112cf565b985061140b60208b016112cf565b975060408a0135965060608a0135955060808a013567ffffffffffffffff81111561143557600080fd5b6114418c828d0161134b565b90965094505060a08a013567ffffffffffffffff81111561146157600080fd5b61146d8c828d0161134b565b9a9d999c50979a9699959894979660c00135949350505050565b60008060006040848603121561149c57600080fd5b83359250602084013567ffffffffffffffff8111156114ba57600080fd5b6114c68682870161134b565b9497909650939450505050565b602081526000825180602084015260005b8181101561150157602081860181015160408684010152016114e4565b506000604082850101526040601f19601f83011684010191505092915050565b634e487b7160e01b600052604160045260246000fd5b600181811c9082168061154b57607f821691505b60208210810361156b57634e487b7160e01b600052602260045260246000fd5b50919050565b601f8211156104c757806000526020600020601f840160051c810160208510156115985750805b601f840160051c820191505b818110156115b857600081556001016115a4565b5050505050565b67ffffffffffffffff8311156115d7576115d7611521565b6115eb836115e58354611537565b83611571565b6000601f84116001811461161f57600085156116075750838201355b600019600387901b1c1916600186901b1783556115b8565b600083815260209020601f19861690835b828110156116505786850135825560209485019460019092019101611630565b508682101561166d5760001960f88860031b161c19848701351681555b505060018560011b0183555050505050565b606081528360608201528385608083013760006080858301015260006080601f19601f870116830101905083602083015282604083015295945050505050565b634e487b7160e01b600052601160045260246000fd5b808201808211156103ae576103ae6116bf565b634e487b7160e01b600052603260045260246000fd5b818103818111156103ae576103ae6116bf56fe97667070c54ef182b0f5858b034beac1b6f3089aa2d3188bb1e8929f4fa9b92902dd7bc7dec4dceedda775e58dd541e08a116c6c53815c0bd028192f7b626800cd5ed15c6e187e77e9aee88184c21f4f2182ab5827cb3b7e07fbedcd63f03300a26469706673582212203f72848aaecb8ad8efdf55b9c644b180eb72068de060262715a100428a2ab30a64736f6c634300081c0033",
  "linkReferences": {},
  "deployedLinkReferences": {}
}