{
  "_format": "hh-sol-artifact-1",
  "contractName": "TXBridge",
  "sourceName": "contracts/TXBridge.sol",
  "abi": [
    {
      "inputs": [],
      "stateMutability": "nonpayable",
      "type": "constructor"
    },
    {
      "inputs": [],
      "name": "AccessControlBadConfirmation",
      "type": "error"
    },
    {
      "inputs": [
        {
          "internalType": "address",
          "name": "account",
          "type": "address"
        },
        {
          "internalType": "bytes32",
          "name": "neededRole",
          "type": "bytes32"
        }
      ],
      "name": "AccessControlUnauthorizedAccount",
      "type": "error"
    },
    {
      "inputs": [
        {
          "internalType": "uint256",
          "name": "amount",
          "type": "uint256"
        },
        {
          "internalType": "uint256",
          "name": "maximum",
          "type": "uint256"
        }
      ],
      "name": "AmountAboveMaximum",
      "type": "error"
    },
    {
      "inputs": [
        {
          "internalType": "uint256",
          "name": "amount",
          "type": "uint256"
        },
        {
          "internalType": "uint256",
          "name": "minimum",
          "type": "uint256"
        }
      ],
      "name": "AmountBelowMinimum",
      "type": "error"
    },
    {
      "inputs": [],
      "name": "EmptyString",
      "type": "error"
    },
    {
      "inputs": [],
      "name": "EnforcedPause",
      "type": "error"
    },
    {
      "inputs": [],
      "name": "ExpectedPause",
      "type": "error"
    },
    {
      "inputs": [],
      "name": "InvalidAmount",
      "type": "error"
    },
    {
      "inputs": [],
      "name": "InvalidInitialization",
      "type": "error"
    },
    {
      "inputs": [],
      "name": "InvalidTXAddress",
      "type": "error"
    },
    {
      "inputs": [],
      "name": "NotInitializing",
      "type": "error"
    },
    {
      "inputs": [],
      "name": "ReentrancyGuardReentrantCall",
      "type": "error"
    },
    {
      "inputs": [],
      "name": "ZeroAddress",
      "type": "error"
    },
    {
      "anonymous": false,
      "inputs": [
        {
          "indexed": false,
          "internalType": "uint64",
          "name": "version",
          "type": "uint64"
        }
      ],
      "name": "Initialized",
      "type": "event"
    },
    {
      "anonymous": false,
      "inputs": [
        {
          "indexed": false,
          "internalType": "address",
          "name": "account",
          "type": "address"
        }
      ],
      "name": "Paused",
      "type": "event"
    },
    {
      "anonymous": false,
      "inputs": [
        {
          "indexed": true,
          "internalType": "bytes32",
          "name": "role",
          "type": "bytes32"
        },
        {
          "indexed": true,
          "internalType": "bytes32",
          "name": "previousAdminRole",
          "type": "bytes32"
        },
        {
          "indexed": true,
          "internalType": "bytes32",
          "name": "newAdminRole",
          "type": "bytes32"
        }
      ],
      "name": "RoleAdminChanged",
      "type": "event"
    },
    {
      "anonymous": false,
      "inputs": [
        {
          "indexed": true,
          "internalType": "bytes32",
          "name": "role",
          "type": "bytes32"
        },
        {
          "indexed": true,
          "internalType": "address",
          "name": "account",
          "type": "address"
        },
        {
          "indexed": true,
          "internalType": "address",
          "name": "sender",
          "type": "address"
        }
      ],
      "name": "RoleGranted",
      "type": "event"
    },
    {
      "anonymous": false,
      "inputs": [
        {
          "indexed": true,
          "internalType": "bytes32",
          "name": "role",
          "type": "bytes32"
        },
        {
          "indexed": true,
          "internalType": "address",
          "name": "account",
          "type": "address"
        },
        {
          "indexed": true,
          "internalType": "address",
          "name": "sender",
          "type": "address"
        }
      ],
      "name": "RoleRevoked",
      "type": "event"
    },
    {
      "anonymous": false,
      "inputs": [
        {
          "indexed": true,
          "internalType": "address",
          "name": "from",
          "type": "address"
        },
        {
          "indexed": false,
          "internalType": "string",
          "name": "txAddress",
          "type": "string"
        },
        {
          "indexed": false,
          "internalType": "uint256",
          "name": "amount",
          "type": "uint256"
        },
        {
          "indexed": false,
          "internalType": "uint256",
          "name": "timestamp",
          "type": "uint256"
        }
      ],
      "name": "SentToTXChain",
      "type": "event"
    },
    {
      "anonymous": false,
      "inputs": [
        {
          "indexed": false,
          "internalType": "address",
          "name": "oldToken",
          "type": "address"
        },
        {
          "indexed": false,
          "internalType": "address",
          "name": "newToken",
          "type": "address"
        }
      ],
      "name": "TokenUpdated",
      "type": "event"
    },
    {
      "anonymous": false,
      "inputs": [
        {
          "indexed": false,
          "internalType": "address",
          "name": "account",
          "type": "address"
        }
      ],
      "name": "Unpaused",
      "type": "event"
    },
    {
      "inputs": [],
      "name": "DEFAULT_ADMIN_ROLE",
      "outputs": [
        {
          "internalType": "bytes32",
          "name": "",
          "type": "bytes32"
        }
      ],
      "stateMutability": "view",
      "type": "function"
    },
    {
      "inputs": [],
      "name": "OPERATOR_ROLE",
      "outputs": [
        {
          "internalType": "bytes32",
          "name": "",
          "type": "bytes32"
        }
      ],
      "stateMutability": "view",
      "type": "function"
    },
    {
      "inputs": [],
      "name": "addressPrefix",
      "outputs": [
        {
          "internalType": "string",
          "name": "",
          "type": "string"
        }
      ],
      "stateMutability": "view",
      "type": "function"
    },
    {
      "inputs": [
        {
          "internalType": "bytes32",
          "name": "role",
          "type": "bytes32"
        }
      ],
      "name": "getRoleAdmin",
      "outputs": [
        {
          "internalType": "bytes32",
          "name": "",
          "type": "bytes32"
        }
      ],
      "stateMutability": "view",
      "type": "function"
    },
    {
      "inputs": [
        {
          "internalType": "bytes32",
          "name": "role",
          "type": "bytes32"
        },
        {
          "internalType": "address",
          "name": "account",
          "type": "address"
        }
      ],
      "name": "grantRole",
      "outputs": [],
      "stateMutability": "nonpayable",
      "type": "function"
    },
    {
      "inputs": [
        {
          "internalType": "bytes32",
          "name": "role",
          "type": "bytes32"
        },
        {
          "internalType": "address",
          "name": "account",
          "type": "address"
        }
      ],
      "name": "hasRole",
      "outputs": [
        {
          "internalType": "bool",
          "name": "",
          "type": "bool"
        }
      ],
      "stateMutability": "view",
      "type": "function"
    },
    {
      "inputs": [
        {
          "internalType": "address",
          "name": "_token",
          "type": "address"
        },
        {
          "internalType": "address",
          "name": "_admin",
          "type": "address"
        },
        {
          "internalType": "uint256",
          "name": "_minAmount",
          "type": "uint256"
        },
        {
          "internalType": "uint256",
          "name": "_maxAmount",
          "type": "uint256"
        },
        {
          "internalType": "string",
          "name": "_addressPrefix",
          "type": "string"
        }
      ],
      "name": "initialize",
      "outputs": [],
      "stateMutability": "nonpayable",
      "type": "function"
    },
    {
      "inputs": [
        {
          "internalType": "string",
          "name": "txAddress",
          "type": "string"
        }
      ],
      "name": "isValidTXAddress",
      "outputs": [
        {
          "internalType": "bool",
          "name": "",
          "type": "bool"
        }
      ],
      "stateMutability": "view",
      "type": "function"
    },
    {
      "inputs": [],
      "name": "maxAmount",
      "outputs": [
        {
          "internalType": "uint256",
          "name": "",
          "type": "uint256"
        }
      ],
      "stateMutability": "view",
      "type": "function"
    },
    {
      "inputs": [],
      "name": "minAmount",
      "outputs": [
        {
          "internalType": "uint256",
          "name": "",
          "type": "uint256"
        }
      ],
      "stateMutability": "view",
      "type": "function"
    },
    {
      "inputs": [],
      "name": "pause",
      "outputs": [],
      "stateMutability": "nonpayable",
      "type": "function"
    },
    {
      "inputs": [],
      "name": "paused",
      "outputs": [
        {
          "internalType": "bool",
          "name": "",
          "type": "bool"
        }
      ],
      "stateMutability": "view",
      "type": "function"
    },
    {
      "inputs": [
        {
          "internalType": "bytes32",
          "name": "role",
          "type": "bytes32"
        },
        {
          "internalType": "address",
          "name": "callerConfirmation",
          "type": "address"
        }
      ],
      "name": "renounceRole",
      "outputs": [],
      "stateMutability": "nonpayable",
      "type": "function"
    },
    {
      "inputs": [
        {
          "internalType": "bytes32",
          "name": "role",
          "type": "bytes32"
        },
        {
          "internalType": "address",
          "name": "account",
          "type": "address"
        }
      ],
      "name": "revokeRole",
      "outputs": [],
      "stateMutability": "nonpayable",
      "type": "function"
    },
    {
      "inputs": [
        {
          "internalType": "uint256",
          "name": "amount",
          "type": "uint256"
        },
        {
          "internalType": "string",
          "name": "txAddress",
          "type": "string"
        }
      ],
      "name": "sendToTXChain",
      "outputs": [],
      "stateMutability": "nonpayable",
      "type": "function"
    },
    {
      "inputs": [
        {
          "internalType": "string",
          "name": "_addressPrefix",
          "type": "string"
        }
      ],
      "name": "setAddressPrefix",
      "outputs": [],
      "stateMutability": "nonpayable",
      "type": "function"
    },
    {
      "inputs": [
        {
          "internalType": "uint256",
          "name": "_maxAmount",
          "type": "uint256"
        }
      ],
      "name": "setMaxAmount",
      "outputs": [],
      "stateMutability": "nonpayable",
      "type": "function"
    },
    {
      "inputs": [
        {
          "internalType": "uint256",
          "name": "_minAmount",
          "type": "uint256"
        }
      ],
      "name": "setMinAmount",
      "outputs": [],
      "stateMutability": "nonpayable",
      "type": "function"
    },
    {
      "inputs": [
        {
          "internalType": "address",
          "name": "_token",
          "type": "address"
        }
      ],
      "name": "setToken",
      "outputs": [],
      "stateMutability": "nonpayable",
      "type": "function"
    },
    {
      "inputs": [
        {
          "internalType": "bytes4",
          "name": "interfaceId",
          "type": "bytes4"
        }
      ],
      "name": "supportsInterface",
      "outputs": [
        {
          "internalType": "bool",
          "name": "",
          "type": "bool"
        }
      ],
      "stateMutability": "view",
      "type": "function"
    },
    {
      "inputs": [],
      "name": "token",
      "outputs": [
        {
          "internalType": "contract ITXToken",
          "name": "",
          "type": "address"
        }
      ],
      "stateMutability": "view",
      "type": "function"
    },
    {
      "inputs": [],
      "name": "unpause",
      "outputs": [],
      "stateMutability": "nonpayable",
      "type": "function"
    }
  ],
  "bytecode": "0x6080604052348015600f57600080fd5b506016601a565b60ca565b7ff0c57e16840df040f15088dc2f81fe391c3923bec73e23a9662efc9c229c6a00805468010000000000000000900460ff161560695760405163f92ee8a960e01b815260040160405180910390fd5b80546001600160401b039081161460c75780546001600160401b0319166001600160401b0390811782556040519081527fc7f505b2f371ae2175ee4913f4499e1f2633a7b5936321eed1cdaeb6115181d29060200160405180910390a15b50565b611496806100d96000396000f3fe608060405234801561001057600080fd5b50600436106101425760003560e01c80638456cb59116100b8578063a217fddf1161007c578063a217fddf14610277578063b8e4e61d1461027f578063d547741f14610292578063f0e0de8f146102a5578063f5b541a6146102ba578063fc0c546a146102cf57600080fd5b80638456cb591461022d578063897b0637146102355780638e737af21461024857806391d148541461025b5780639b2cb5d81461026e57600080fd5b80632f2ff15d1161010a5780632f2ff15d146101cb57806336568abe146101de5780633f4ba83a146101f15780634fe47f70146101f95780635c975abb1461020c5780635f48f3931461022457600080fd5b806301ffc9a714610147578063061730e71461016f578063144fa6d7146101825780632389b2bc14610197578063248a9ca3146101aa575b600080fd5b61015a610155366004610fcd565b6102fa565b60405190151581526020015b60405180910390f35b61015a61017d366004611040565b610331565b61019561019036600461109e565b610344565b005b6101956101a53660046110b9565b6103e0565b6101bd6101b8366004611105565b61057c565b604051908152602001610166565b6101956101d936600461111e565b61059e565b6101956101ec36600461111e565b6105c0565b6101956105f3565b610195610207366004611105565b610616565b6000805160206114418339815191525460ff1661015a565b6101bd60025481565b61019561064a565b610195610243366004611105565b61066a565b61019561025636600461114a565b61069e565b61015a61026936600461111e565b610863565b6101bd60015481565b6101bd600081565b61019561028d366004611040565b61089b565b6101956102a036600461111e565b6108d5565b6102ad6108f1565b60405161016691906111c2565b6101bd60008051602061140183398151915281565b6000546102e2906001600160a01b031681565b6040516001600160a01b039091168152602001610166565b60006001600160e01b03198216637965db0b60e01b148061032b57506301ffc9a760e01b6001600160e01b03198316145b92915050565b600061033d838361097f565b9392505050565b600061034f81610c61565b6001600160a01b0382166103765760405163d92e233d60e01b815260040160405180910390fd5b600054604080516001600160a01b03928316815291841660208301527f0b1186973f810894b87ab0bfbee422fddcaad21b46dc705a561451bbb6bac117910160405180910390a150600080546001600160a01b0319166001600160a01b0392909216919091179055565b6103e8610c6b565b6103f0610cb5565b826000036104115760405163162908e360e11b815260040160405180910390fd5b60015483101561044b5760015460405163180cb56f60e11b8152610442918591600401918252602082015260400190565b60405180910390fd5b60025483111561047c57600254604051632a1e4ad560e21b8152610442918591600401918252602082015260400190565b610486828261097f565b6104a357604051635b42edd960e11b815260040160405180910390fd5b600054604051632b8c49e360e01b8152336004820152602481018590526001600160a01b0390911690632b8c49e390604401600060405180830381600087803b1580156104ef57600080fd5b505af1158015610503573d6000803e3d6000fd5b50505050336001600160a01b03167fa0d66d4ed6a10cb5b9c30a9a41ba884bee23e383f96c44462f6e274f35eb5600838386426040516105469493929190611210565b60405180910390a261057760017f9b779b17422d0df92223018b32b4d1fa46e071723d6817e2486d003becc55f0055565b505050565b6000908152600080516020611421833981519152602052604090206001015490565b6105a78261057c565b6105b081610c61565b6105ba8383610d0e565b50505050565b6001600160a01b03811633146105e95760405163334bd91960e11b815260040160405180910390fd5b6105778282610db3565b60008051602061140183398151915261060b81610c61565b610613610e2f565b50565b600061062181610c61565b6001548210156106445760405163162908e360e11b815260040160405180910390fd5b50600255565b60008051602061140183398151915261066281610c61565b610613610e8f565b600061067581610c61565b6002548211156106985760405163162908e360e11b815260040160405180910390fd5b50600155565b60006106a8610ed8565b805490915060ff600160401b820416159067ffffffffffffffff166000811580156106d05750825b905060008267ffffffffffffffff1660011480156106ed5750303b155b9050811580156106fb575080155b156107195760405163f92ee8a960e01b815260040160405180910390fd5b845467ffffffffffffffff19166001178555831561074357845460ff60401b1916600160401b1785555b6001600160a01b038b16158061076057506001600160a01b038a16155b1561077e5760405163d92e233d60e01b815260040160405180910390fd5b60008690036107a05760405163ecd7b0d160e01b815260040160405180910390fd5b6107a8610f01565b6107b0610f01565b6107b8610f09565b600080546001600160a01b0319166001600160a01b038d161790556001899055600288905560036107ea8789836112ee565b506107f660008b610d0e565b5061080f6000805160206114018339815191528b610d0e565b50831561085657845460ff60401b19168555604051600181527fc7f505b2f371ae2175ee4913f4499e1f2633a7b5936321eed1cdaeb6115181d29060200160405180910390a15b5050505050505050505050565b6000918252600080516020611421833981519152602090815260408084206001600160a01b0393909316845291905290205460ff1690565b60006108a681610c61565b60008290036108c85760405163ecd7b0d160e01b815260040160405180910390fd5b60036105ba8385836112ee565b6108de8261057c565b6108e781610c61565b6105ba8383610db3565b600380546108fe90611266565b80601f016020809104026020016040519081016040528092919081815260200182805461092a90611266565b80156109775780601f1061094c57610100808354040283529160200191610977565b820191906000526020600020905b81548152906001019060200180831161095a57829003601f168201915b505050505081565b60008083838080601f01602080910402602001604051908101604052809392919081815260200183838082843760009201829052506003805495965090949093506109cc92509050611266565b80601f01602080910402602001604051908101604052809291908181526020018280546109f890611266565b8015610a455780601f10610a1a57610100808354040283529160200191610a45565b820191906000526020600020905b815481529060010190602001808311610a2857829003601f168201915b505050505090506000600182518451610a5e91906113c4565b610a6891906113c4565b905080602614158015610a7c575080603a14155b15610a8d576000935050505061032b565b60005b8251811015610afb57828181518110610aab57610aab6113d7565b602001015160f81c60f81b6001600160f81b031916848281518110610ad257610ad26113d7565b01602001516001600160f81b03191614610af357600094505050505061032b565b600101610a90565b5082825181518110610b0f57610b0f6113d7565b6020910101516001600160f81b031916603160f81b14610b35576000935050505061032b565b600082516001610b4591906113ed565b90505b8351811015610c54576000848281518110610b6557610b656113d7565b01602001516001600160f81b03191690506000606160f81b8210801590610b9a5750603d60f91b6001600160f81b0319831611155b8015610bb45750603160f91b6001600160f81b0319831614155b8015610bce5750606960f81b6001600160f81b0319831614155b8015610be85750606f60f81b6001600160f81b0319831614155b80610c345750600360fc1b6001600160f81b0319831610801590610c1a5750603960f81b6001600160f81b0319831611155b8015610c345750603160f81b6001600160f81b0319831614155b905080610c4a576000965050505050505061032b565b5050600101610b48565b5060019695505050505050565b6106138133610f19565b7f9b779b17422d0df92223018b32b4d1fa46e071723d6817e2486d003becc55f00805460011901610caf57604051633ee5aeb560e01b815260040160405180910390fd5b60029055565b6000805160206114418339815191525460ff1615610ce65760405163d93c066560e01b815260040160405180910390fd5b565b60017f9b779b17422d0df92223018b32b4d1fa46e071723d6817e2486d003becc55f0055565b6000600080516020611421833981519152610d298484610863565b610da9576000848152602082815260408083206001600160a01b03871684529091529020805460ff19166001179055610d5f3390565b6001600160a01b0316836001600160a01b0316857f2f8788117e7eff1d82e926ec794901d17c78024a50270940304540a733656f0d60405160405180910390a4600191505061032b565b600091505061032b565b6000600080516020611421833981519152610dce8484610863565b15610da9576000848152602082815260408083206001600160a01b0387168085529252808320805460ff1916905551339287917ff6391f5c32d9c69d2a47ea670b442974b53935d1edc7fd64eb21e047a839171b9190a4600191505061032b565b610e37610f56565b600080516020611441833981519152805460ff191681557f5db9ee0a495bf2e6ff9c91a7834c1ba4fdd244a5e8aa4e537bd38aeae4b073aa335b6040516001600160a01b03909116815260200160405180910390a150565b610e97610cb5565b600080516020611441833981519152805460ff191660011781557f62e78cea01bee320cd4e420270b5ea74000d11b0c9f74754ebdbfc544b05a25833610e71565b6000807ff0c57e16840df040f15088dc2f81fe391c3923bec73e23a9662efc9c229c6a0061032b565b610ce6610f86565b610f11610f86565b610ce6610fab565b610f238282610863565b610f525760405163e2517d3f60e01b81526001600160a01b038216600482015260248101839052604401610442565b5050565b6000805160206114418339815191525460ff16610ce657604051638dfc202b60e01b815260040160405180910390fd5b610f8e610fb3565b610ce657604051631afcd79f60e31b815260040160405180910390fd5b610ce8610f86565b6000610fbd610ed8565b54600160401b900460ff16919050565b600060208284031215610fdf57600080fd5b81356001600160e01b03198116811461033d57600080fd5b60008083601f84011261100957600080fd5b50813567ffffffffffffffff81111561102157600080fd5b60208301915083602082850101111561103957600080fd5b9250929050565b6000806020838503121561105357600080fd5b823567ffffffffffffffff81111561106a57600080fd5b61107685828601610ff7565b90969095509350505050565b80356001600160a01b038116811461109957600080fd5b919050565b6000602082840312156110b057600080fd5b61033d82611082565b6000806000604084860312156110ce57600080fd5b83359250602084013567ffffffffffffffff8111156110ec57600080fd5b6110f886828701610ff7565b9497909650939450505050565b60006020828403121561111757600080fd5b5035919050565b6000806040838503121561113157600080fd5b8235915061114160208401611082565b90509250929050565b60008060008060008060a0878903121561116357600080fd5b61116c87611082565b955061117a60208801611082565b94506040870135935060608701359250608087013567ffffffffffffffff8111156111a457600080fd5b6111b089828a01610ff7565b979a9699509497509295939492505050565b602081526000825180602084015260005b818110156111f057602081860181015160408684010152016111d3565b506000604082850101526040601f19601f83011684010191505092915050565b606081528360608201528385608083013760006080858301015260006080601f19601f870116830101905083602083015282604083015295945050505050565b634e487b7160e01b600052604160045260246000fd5b600181811c9082168061127a57607f821691505b60208210810361129a57634e487b7160e01b600052602260045260246000fd5b50919050565b601f82111561057757806000526020600020601f840160051c810160208510156112c75750805b601f840160051c820191505b818110156112e757600081556001016112d3565b5050505050565b67ffffffffffffffff83111561130657611306611250565b61131a836113148354611266565b836112a0565b6000601f84116001811461134e57600085156113365750838201355b600019600387901b1c1916600186901b1783556112e7565b600083815260209020601f19861690835b8281101561137f578685013582556020948501946001909201910161135f565b508682101561139c5760001960f88860031b161c19848701351681555b505060018560011b0183555050505050565b634e487b7160e01b600052601160045260246000fd5b8181038181111561032b5761032b6113ae565b634e487b7160e01b600052603260045260246000fd5b8082018082111561032b5761032b6113ae56fe97667070c54ef182b0f5858b034beac1b6f3089aa2d3188bb1e8929f4fa9b92902dd7bc7dec4dceedda775e58dd541e08a116c6c53815c0bd028192f7b626800cd5ed15c6e187e77e9aee88184c21f4f2182ab5827cb3b7e07fbedcd63f03300a2646970667358221220ffd7ae25e3b8c12f302e2b34a102b050f5f9fff579a0987b05dddbc947303e0264736f6c634300081c0033",
  "linkReferences": {},
  "deployedLinkReferences": {}
}