{
  "_format": "hh-sol-artifact-1",
  "contractName": "TXToken",
  "sourceName": "contracts/TXToken.sol",
  "abi": [
    {
      "inputs": [],
      "stateMutability": "nonpayable",
      "type": "constructor"
    },
    {
      "inputs": [],
      "name": "AccessControlBadConfirmation",
      "type": "error"
    },
    {
      "inputs": [
        {
          "internalType": "address",
          "name": "account",
          "type": "address"
        },
        {
          "internalType": "bytes32",
          "name": "neededRole",
          "type": "bytes32"
        }
      ],
      "name": "AccessControlUnauthorizedAccount",
      "type": "error"
    },
    {
      "inputs": [],
      "name": "ECDSAInvalidSignature",
      "type": "error"
    },
    {
      "inputs": [
        {
          "internalType": "uint256",
          "name": "length",
          "type": "uint256"
        }
      ],
      "name": "ECDSAInvalidSignatureLength",
      "type": "error"
    },
    {
      "inputs": [
        {
          "internalType": "bytes32",
          "name": "s",
          "type": "bytes32"
        }
      ],
      "name": "ECDSAInvalidSignatureS",
      "type": "error"
    },
    {
      "inputs": [
        {
          "internalType": "address",
          "name": "spender",
          "type": "address"
        },
        {
          "internalType": "uint256",
          "name": "allowance",
          "type": "uint256"
        },
        {
          "internalType": "uint256",
          "name": "needed",
          "type": "uint256"
        }
      ],
      "name": "ERC20InsufficientAllowance",
      "type": "error"
    },
    {
      "inputs": [
        {
          "internalType": "address",
          "name": "sender",
          "type": "address"
        },
        {
          "internalType": "uint256",
          "name": "balance",
          "type": "uint256"
        },
        {
          "internalType": "uint256",
          "name": "needed",
          "type": "uint256"
        }
      ],
      "name": "ERC20InsufficientBalance",
      "type": "error"
    },
    {
      "inputs": [
        {
          "internalType": "address",
          "name": "approver",
          "type": "address"
        }
      ],
      "name": "ERC20InvalidApprover",
      "type": "error"
    },
    {
      "inputs": [
        {
          "internalType": "address",
          "name": "receiver",
          "type": "address"
        }
      ],
      "name": "ERC20InvalidReceiver",
      "type": "error"
    },
    {
      "inputs": [
        {
          "internalType": "address",
          "name": "sender",
          "type": "address"
        }
      ],
      "name": "ERC20InvalidSender",
      "type": "error"
    },
    {
      "inputs": [
        {
          "internalType": "address",
          "name": "spender",
          "type": "address"
        }
      ],
      "name": "ERC20InvalidSpender",
      "type": "error"
    },
    {
      "inputs": [
        {
          "internalType": "uint256",
          "name": "deadline",
          "type": "uint256"
        }
      ],
      "name": "ERC2612ExpiredSignature",
      "type": "error"
    },
    {
      "inputs": [
        {
          "internalType": "address",
          "name": "signer",
          "type": "address"
        },
        {
          "internalType": "address",
          "name": "owner",
          "type": "address"
        }
      ],
      "name": "ERC2612InvalidSigner",
      "type": "error"
    },
    {
      "inputs": [],
      "name": "EnforcedPause",
      "type": "error"
    },
    {
      "inputs": [],
      "name": "ExpectedPause",
      "type": "error"
    },
    {
      "inputs": [
        {
          "internalType": "address",
          "name": "account",
          "type": "address"
        },
        {
          "internalType": "uint256",
          "name": "currentNonce",
          "type": "uint256"
        }
      ],
      "name": "InvalidAccountNonce",
      "type": "error"
    },
    {
      "inputs": [],
      "name": "InvalidInitialization",
      "type": "error"
    },
    {
      "inputs": [],
      "name": "NotInitializing",
      "type": "error"
    },
    {
      "anonymous": false,
      "inputs": [
        {
          "indexed": true,
          "internalType": "address",
          "name": "owner",
          "type": "address"
        },
        {
          "indexed": true,
          "internalType": "address",
          "name": "spender",
          "type": "address"
        },
        {
          "indexed": false,
          "internalType": "uint256",
          "name": "value",
          "type": "uint256"
        }
      ],
      "name": "Approval",
      "type": "event"
    },
    {
      "anonymous": false,
      "inputs": [
        {
          "indexed": true,
          "internalType": "address",
          "name": "from",
          "type": "address"
        },
        {
          "indexed": false,
          "internalType": "uint256",
          "name": "amount",
          "type": "uint256"
        },
        {
          "indexed": true,
          "internalType": "address",
          "name": "sender",
          "type": "address"
        }
      ],
      "name": "CrosschainBurn",
      "type": "event"
    },
    {
      "anonymous": false,
      "inputs": [
        {
          "indexed": true,
          "internalType": "address",
          "name": "to",
          "type": "address"
        },
        {
          "indexed": false,
          "internalType": "uint256",
          "name": "amount",
          "type": "uint256"
        },
        {
          "indexed": true,
          "internalType": "address",
          "name": "sender",
          "type": "address"
        }
      ],
      "name": "CrosschainMint",
      "type": "event"
    },
    {
      "anonymous": false,
      "inputs": [],
      "name": "EIP712DomainChanged",
      "type": "event"
    },
    {
      "anonymous": false,
      "inputs": [
        {
          "indexed": false,
          "internalType": "uint64",
          "name": "version",
          "type": "uint64"
        }
      ],
      "name": "Initialized",
      "type": "event"
    },
    {
      "anonymous": false,
      "inputs": [
        {
          "indexed": false,
          "internalType": "address",
          "name": "account",
          "type": "address"
        }
      ],
      "name": "Paused",
      "type": "event"
    },
    {
      "anonymous": false,
      "inputs": [
        {
          "indexed": true,
          "internalType": "bytes32",
          "name": "role",
          "type": "bytes32"
        },
        {
          "indexed": true,
          "internalType": "bytes32",
          "name": "previousAdminRole",
          "type": "bytes32"
        },
        {
          "indexed": true,
          "internalType": "bytes32",
          "name": "newAdminRole",
          "type": "bytes32"
        }
      ],
      "name": "RoleAdminChanged",
      "type": "event"
    },
    {
      "anonymous": false,
      "inputs": [
        {
          "indexed": true,
          "internalType": "bytes32",
          "name": "role",
          "type": "bytes32"
        },
        {
          "indexed": true,
          "internalType": "address",
          "name": "account",
          "type": "address"
        },
        {
          "indexed": true,
          "internalType": "address",
          "name": "sender",
          "type": "address"
        }
      ],
      "name": "RoleGranted",
      "type": "event"
    },
    {
      "anonymous": false,
      "inputs": [
        {
          "indexed": true,
          "internalType": "bytes32",
          "name": "role",
          "type": "bytes32"
        },
        {
          "indexed": true,
          "internalType": "address",
          "name": "account",
          "type": "address"
        },
        {
          "indexed": true,
          "internalType": "address",
          "name": "sender",
          "type": "address"
        }
      ],
      "name": "RoleRevoked",
      "type": "event"
    },
    {
      "anonymous": false,
      "inputs": [
        {
          "indexed": true,
          "internalType": "address",
          "name": "from",
          "type": "address"
        },
        {
          "indexed": true,
          "internalType": "address",
          "name": "to",
          "type": "address"
        },
        {
          "indexed": false,
          "internalType": "uint256",
          "name": "value",
          "type": "uint256"
        }
      ],
      "name": "Transfer",
      "type": "event"
    },
    {
      "anonymous": false,
      "inputs": [
        {
          "indexed": false,
          "internalType": "address",
          "name": "account",
          "type": "address"
        }
      ],
      "name": "Unpaused",
      "type": "event"
    },
    {
      "inputs": [],
      "name": "BRIDGE_ROLE",
      "outputs": [
        {
          "internalType": "bytes32",
          "name": "",
          "type": "bytes32"
        }
      ],
      "stateMutability": "view",
      "type": "function"
    },
    {
      "inputs": [],
      "name": "DEFAULT_ADMIN_ROLE",
      "outputs": [
        {
          "internalType": "bytes32",
          "name": "",
          "type": "bytes32"
        }
      ],
      "stateMutability": "view",
      "type": "function"
    },
    {
      "inputs": [],
      "name": "DOMAIN_SEPARATOR",
      "outputs": [
        {
          "internalType": "bytes32",
          "name": "",
          "type": "bytes32"
        }
      ],
      "stateMutability": "view",
      "type": "function"
    },
    {
      "inputs": [
        {
          "internalType": "address",
          "name": "owner",
          "type": "address"
        },
        {
          "internalType": "address",
          "name": "spender",
          "type": "address"
        }
      ],
      "name": "allowance",
      "outputs": [
        {
          "internalType": "uint256",
          "name": "",
          "type": "uint256"
        }
      ],
      "stateMutability": "view",
      "type": "function"
    },
    {
      "inputs": [
        {
          "internalType": "address",
          "name": "spender",
          "type": "address"
        },
        {
          "internalType": "uint256",
          "name": "value",
          "type": "uint256"
        }
      ],
      "name": "approve",
      "outputs": [
        {
          "internalType": "bool",
          "name": "",
          "type": "bool"
        }
      ],
      "stateMutability": "nonpayable",
      "type": "function"
    },
    {
      "inputs": [
        {
          "internalType": "address",
          "name": "account",
          "type": "address"
        }
      ],
      "name": "balanceOf",
      "outputs": [
        {
          "internalType": "uint256",
          "name": "",
          "type": "uint256"
        }
      ],
      "stateMutability": "view",
      "type": "function"
    },
    {
      "inputs": [
        {
          "internalType": "address",
          "name": "from",
          "type": "address"
        },
        {
          "internalType": "uint256",
          "name": "amount",
          "type": "uint256"
        }
      ],
      "name": "burn",
      "outputs": [],
      "stateMutability": "nonpayable",
      "type": "function"
    },
    {
      "inputs": [
        {
          "internalType": "address",
          "name": "from",
          "type": "address"
        },
        {
          "internalType": "uint256",
          "name": "value",
          "type": "uint256"
        }
      ],
      "name": "crosschainBurn",
      "outputs": [],
      "stateMutability": "nonpayable",
      "type": "function"
    },
    {
      "inputs": [
        {
          "internalType": "address",
          "name": "to",
          "type": "address"
        },
        {
          "internalType": "uint256",
          "name": "value",
          "type": "uint256"
        }
      ],
      "name": "crosschainMint",
      "outputs": [],
      "stateMutability": "nonpayable",
      "type": "function"
    },
    {
      "inputs": [],
      "name": "decimals",
      "outputs": [
        {
          "internalType": "uint8",
          "name": "",
          "type": "uint8"
        }
      ],
      "stateMutability": "view",
      "type": "function"
    },
    {
      "inputs": [],
      "name": "eip712Domain",
      "outputs": [
        {
          "internalType": "bytes1",
          "name": "fields",
          "type": "bytes1"
        },
        {
          "internalType": "string",
          "name": "name",
          "type": "string"
        },
        {
          "internalType": "string",
          "name": "version",
          "type": "string"
        },
        {
          "internalType": "uint256",
          "name": "chainId",
          "type": "uint256"
        },
        {
          "internalType": "address",
          "name": "verifyingContract",
          "type": "address"
        },
        {
          "internalType": "bytes32",
          "name": "salt",
          "type": "bytes32"
        },
        {
          "internalType": "uint256[]",
          "name": "extensions",
          "type": "uint256[]"
        }
      ],
      "stateMutability": "view",
      "type": "function"
    },
    {
      "inputs": [
        {
          "internalType": "bytes32",
          "name": "role",
          "type": "bytes32"
        }
      ],
      "name": "getRoleAdmin",
      "outputs": [
        {
          "internalType": "bytes32",
          "name": "",
          "type": "bytes32"
        }
      ],
      "stateMutability": "view",
      "type": "function"
    },
    {
      "inputs": [
        {
          "internalType": "bytes32",
          "name": "role",
          "type": "bytes32"
        },
        {
          "internalType": "address",
          "name": "account",
          "type": "address"
        }
      ],
      "name": "grantRole",
      "outputs": [],
      "stateMutability": "nonpayable",
      "type": "function"
    },
    {
      "inputs": [
        {
          "internalType": "bytes32",
          "name": "role",
          "type": "bytes32"
        },
        {
          "internalType": "address",
          "name": "account",
          "type": "address"
        }
      ],
      "name": "hasRole",
      "outputs": [
        {
          "internalType": "bool",
          "name": "",
          "type": "bool"
        }
      ],
      "stateMutability": "view",
      "type": "function"
    },
    {
      "inputs": [
        {
          "internalType": "string",
          "name": "name",
          "type": "string"
        },
        {
          "internalType": "string",
          "name": "symbol",
          "type": "string"
        },
        {
          "internalType": "address",
          "name": "initialOwner",
          "type": "address"
        }
      ],
      "name": "initialize",
      "outputs": [],
      "stateMutability": "nonpayable",
      "type": "function"
    },
    {
      "inputs": [
        {
          "internalType": "address",
          "name": "to",
          "type": "address"
        },
        {
          "internalType": "uint256",
          "name": "amount",
          "type": "uint256"
        }
      ],
      "name": "mint",
      "outputs": [],
      "stateMutability": "nonpayable",
      "type": "function"
    },
    {
      "inputs": [],
      "name": "name",
      "outputs": [
        {
          "internalType": "string",
          "name": "",
          "type": "string"
        }
      ],
      "stateMutability": "view",
      "type": "function"
    },
    {
      "inputs": [
        {
          "internalType": "address",
          "name": "owner",
          "type": "address"
        }
      ],
      "name": "nonces",
      "outputs": [
        {
          "internalType": "uint256",
          "name": "",
          "type": "uint256"
        }
      ],
      "stateMutability": "view",
      "type": "function"
    },
    {
      "inputs": [],
      "name": "pause",
      "outputs": [],
      "stateMutability": "nonpayable",
      "type": "function"
    },
    {
      "inputs": [],
      "name": "paused",
      "outputs": [
        {
          "internalType": "bool",
          "name": "",
          "type": "bool"
        }
      ],
      "stateMutability": "view",
      "type": "function"
    },
    {
      "inputs": [
        {
          "internalType": "address",
          "name": "owner",
          "type": "address"
        },
        {
          "internalType": "address",
          "name": "spender",
          "type": "address"
        },
        {
          "internalType": "uint256",
          "name": "value",
          "type": "uint256"
        },
        {
          "internalType": "uint256",
          "name": "deadline",
          "type": "uint256"
        },
        {
          "internalType": "uint8",
          "name": "v",
          "type": "uint8"
        },
        {
          "internalType": "bytes32",
          "name": "r",
          "type": "bytes32"
        },
        {
          "internalType": "bytes32",
          "name": "s",
          "type": "bytes32"
        }
      ],
      "name": "permit",
      "outputs": [],
      "stateMutability": "nonpayable",
      "type": "function"
    },
    {
      "inputs": [
        {
          "internalType": "bytes32",
          "name": "role",
          "type": "bytes32"
        },
        {
          "internalType": "address",
          "name": "callerConfirmation",
          "type": "address"
        }
      ],
      "name": "renounceRole",
      "outputs": [],
      "stateMutability": "nonpayable",
      "type": "function"
    },
    {
      "inputs": [
        {
          "internalType": "bytes32",
          "name": "role",
          "type": "bytes32"
        },
        {
          "internalType": "address",
          "name": "account",
          "type": "address"
        }
      ],
      "name": "revokeRole",
      "outputs": [],
      "stateMutability": "nonpayable",
      "type": "function"
    },
    {
      "inputs": [
        {
          "internalType": "bytes4",
          "name": "interfaceId",
          "type": "bytes4"
        }
      ],
      "name": "supportsInterface",
      "outputs": [
        {
          "internalType": "bool",
          "name": "",
          "type": "bool"
        }
      ],
      "stateMutability": "view",
      "type": "function"
    },
    {
      "inputs": [],
      "name": "symbol",
      "outputs": [
        {
          "internalType": "string",
          "name": "",
          "type": "string"
        }
      ],
      "stateMutability": "view",
      "type": "function"
    },
    {
      "inputs": [],
      "name": "totalSupply",
      "outputs": [
        {
          "internalType": "uint256",
          "name": "",
          "type": "uint256"
        }
      ],
      "stateMutability": "view",
      "type": "function"
    },
    {
      "inputs": [
        {
          "internalType": "address",
          "name": "to",
          "type": "address"
        },
        {
          "internalType": "uint256",
          "name": "value",
          "type": "uint256"
        }
      ],
      "name": "transfer",
      "outputs": [
        {
          "internalType": "bool",
          "name": "",
          "type": "bool"
        }
      ],
      "stateMutability": "nonpayable",
      "type": "function"
    },
    {
      "inputs": [
        {
          "internalType": "address",
          "name": "from",
          "type": "address"
        },
        {
          "internalType": "address",
          "name": "to",
          "type": "address"
        },
        {
          "internalType": "uint256",
          "name": "value",
          "type": "uint256"
        }
      ],
      "name": "transferFrom",
      "outputs": [
        {
          "internalType": "bool",
          "name": "",
          "type": "bool"
        }
      ],
      "stateMutability": "nonpayable",
      "type": "function"
    },
    {
      "inputs": [],
      "name": "unpause",
      "outputs": [],
      "stateMutability": "nonpayable",
      "type": "function"
    }
  ],
  "bytecode": "0x6080604052348015600f57600080fd5b506016601a565b60ca565b7ff0c57e16840df040f15088dc2f81fe391c3923bec73e23a9662efc9c229c6a00805468010000000000000000900460ff161560695760405163f92ee8a960e01b815260040160405180910390fd5b80546001600160401b039081161460c75780546001600160401b0319166001600160401b0390811782556040519081527fc7f505b2f371ae2175ee4913f4499e1f2633a7b5936321eed1cdaeb6115181d29060200160405180910390a15b50565b611c43806100d96000396000f3fe608060405234801561001057600080fd5b50600436106101cf5760003560e01c806340c10f191161010457806395d89b41116100a2578063b5bfddea11610071578063b5bfddea146103b8578063d505accf146103df578063d547741f146103f2578063dd62ed3e1461040557600080fd5b806395d89b41146103825780639dc29fac1461038a578063a217fddf1461039d578063a9059cbb146103a557600080fd5b80637ecebe00116100de5780637ecebe00146103395780638456cb591461034c57806384b0196e1461035457806391d148541461036f57600080fd5b806340c10f19146102fb5780635c975abb1461030e57806370a082311461032657600080fd5b8063248a9ca311610171578063313ce5671161014b578063313ce567146102c95780633644e515146102d857806336568abe146102e05780633f4ba83a146102f357600080fd5b8063248a9ca3146102905780632b8c49e3146102a35780632f2ff15d146102b657600080fd5b8063095ea7b3116101ad578063095ea7b31461022657806318160ddd1461023957806318bf50771461026a57806323b872dd1461027d57600080fd5b806301ffc9a7146101d457806306fdde03146101fc578063077f224a14610211575b600080fd5b6101e76101e2366004611656565b610418565b60405190151581526020015b60405180910390f35b610204610429565b6040516101f391906116cd565b61022461021f3660046117a1565b6104d2565b005b6101e761023436600461181a565b6105fe565b7f52c63247e1f47db19d5ce0460030c497f067ca4cebf71ba98eeadabe20bace02545b6040519081526020016101f3565b61022461027836600461181a565b610616565b6101e761028b366004611844565b61066e565b61025c61029e366004611881565b610692565b6102246102b136600461181a565b6106b4565b6102246102c436600461189a565b610704565b604051601281526020016101f3565b61025c610726565b6102246102ee36600461189a565b610735565b61022461076d565b61022461030936600461181a565b610783565b600080516020611bee8339815191525460ff166101e7565b61025c6103343660046118c6565b610798565b61025c6103473660046118c6565b6107cb565b6102246107d6565b61035c6107e9565b6040516101f397969594939291906118e1565b6101e761037d36600461189a565b61089a565b6102046108d2565b61022461039836600461181a565b610911565b61025c600081565b6101e76103b336600461181a565b610926565b61025c7f52ba824bfabc2bcfcdf7f0edbb486ebb05e1836c90e78047efeb949990f72e5f81565b6102246103ed366004611979565b610934565b61022461040036600461189a565b610a8d565b61025c6104133660046119ec565b610aa9565b600061042382610af3565b92915050565b60606000600080516020611b8e8339815191525b905080600301805461044e90611a16565b80601f016020809104026020016040519081016040528092919081815260200182805461047a90611a16565b80156104c75780601f1061049c576101008083540402835291602001916104c7565b820191906000526020600020905b8154815290600101906020018083116104aa57829003601f168201915b505050505091505090565b60006104dc610b18565b805490915060ff600160401b820416159067ffffffffffffffff166000811580156105045750825b905060008267ffffffffffffffff1660011480156105215750303b155b90508115801561052f575080155b1561054d5760405163f92ee8a960e01b815260040160405180910390fd5b845467ffffffffffffffff19166001178555831561057757845460ff60401b1916600160401b1785555b6105818888610b41565b610589610b57565b61059288610b61565b61059a610b57565b6105a2610b57565b6105ad600087610b8c565b5083156105f457845460ff60401b19168555604051600181527fc7f505b2f371ae2175ee4913f4499e1f2633a7b5936321eed1cdaeb6115181d29060200160405180910390a15b5050505050505050565b60003361060c818585610c31565b5060019392505050565b61061f33610c3e565b6106298282610c68565b60405181815233906001600160a01b038416907fde22baff038e3a3e08407cbdf617deed74e869a7ba517df611e33131c6e6ea04906020015b60405180910390a35050565b60003361067c858285610c9e565b610687858585610cff565b506001949350505050565b6000908152600080516020611bce833981519152602052604090206001015490565b6106bd33610c3e565b6106c78282610d5e565b60405181815233906001600160a01b038416907fb90795a66650155983e242cac3e1ac1a4dc26f8ed2987f3ce416a34e00111fd490602001610662565b61070d82610692565b61071681610d94565b6107208383610b8c565b50505050565b6000610730610d9e565b905090565b6001600160a01b038116331461075e5760405163334bd91960e11b815260040160405180910390fd5b6107688282610da8565b505050565b600061077881610d94565b610780610e24565b50565b600061078e81610d94565b6107688383610c68565b600080600080516020611b8e8339815191525b6001600160a01b0390931660009081526020939093525050604090205490565b600061042382610e84565b60006107e181610d94565b610780610ead565b60006060808280808381600080516020611bae833981519152805490915015801561081657506001810154155b61085f5760405162461bcd60e51b81526020600482015260156024820152741152540dcc4c8e88155b9a5b9a5d1a585b1a5e9959605a1b60448201526064015b60405180910390fd5b610867610ef6565b61086f610f35565b60408051600080825260208201909252600f60f81b9c939b5091995046985030975095509350915050565b6000918252600080516020611bce833981519152602090815260408084206001600160a01b0393909316845291905290205460ff1690565b7f52c63247e1f47db19d5ce0460030c497f067ca4cebf71ba98eeadabe20bace048054606091600080516020611b8e8339815191529161044e90611a16565b600061091c81610d94565b6107688383610d5e565b60003361060c818585610cff565b834211156109585760405163313c898160e11b815260048101859052602401610856565b60007f6e71edae12b1b97f4d1f60370fef10105fa2faae0126114a169c64845d6126c98888886109c48c6001600160a01b031660009081527f5ab42ced628888259c08ac98db1eb0cf702fc1501344311d8b100cd1bfe4bb006020526040902080546001810190915590565b6040805160208101969096526001600160a01b0394851690860152929091166060840152608083015260a082015260c0810186905260e0016040516020818303038152906040528051906020012090506000610a1f82610f4d565b90506000610a2f82878787610f7a565b9050896001600160a01b0316816001600160a01b031614610a76576040516325c0072360e11b81526001600160a01b0380831660048301528b166024820152604401610856565b610a818a8a8a610c31565b50505050505050505050565b610a9682610692565b610a9f81610d94565b6107208383610da8565b6001600160a01b0391821660009081527f52c63247e1f47db19d5ce0460030c497f067ca4cebf71ba98eeadabe20bace016020908152604080832093909416825291909152205490565b60006001600160e01b03198216637965db0b60e01b1480610423575061042382610fa8565b6000807ff0c57e16840df040f15088dc2f81fe391c3923bec73e23a9662efc9c229c6a00610423565b610b49610fdd565b610b538282611002565b5050565b610b5f610fdd565b565b610b69610fdd565b61078081604051806040016040528060018152602001603160f81b815250611053565b6000600080516020611bce833981519152610ba7848461089a565b610c27576000848152602082815260408083206001600160a01b03871684529091529020805460ff19166001179055610bdd3390565b6001600160a01b0316836001600160a01b0316857f2f8788117e7eff1d82e926ec794901d17c78024a50270940304540a733656f0d60405160405180910390a46001915050610423565b6000915050610423565b61076883838360016110b4565b6107807f52ba824bfabc2bcfcdf7f0edbb486ebb05e1836c90e78047efeb949990f72e5f8261119c565b6001600160a01b038216610c925760405163ec442f0560e01b815260006004820152602401610856565b610b53600083836111d5565b6000610caa8484610aa9565b90506000198110156107205781811015610cf057604051637dc7a0d960e11b81526001600160a01b03841660048201526024810182905260448101839052606401610856565b610720848484840360006110b4565b6001600160a01b038316610d2957604051634b637e8f60e11b815260006004820152602401610856565b6001600160a01b038216610d535760405163ec442f0560e01b815260006004820152602401610856565b6107688383836111d5565b6001600160a01b038216610d8857604051634b637e8f60e11b815260006004820152602401610856565b610b53826000836111d5565b610780813361119c565b60006107306111e0565b6000600080516020611bce833981519152610dc3848461089a565b15610c27576000848152602082815260408083206001600160a01b0387168085529252808320805460ff1916905551339287917ff6391f5c32d9c69d2a47ea670b442974b53935d1edc7fd64eb21e047a839171b9190a46001915050610423565b610e2c611254565b600080516020611bee833981519152805460ff191681557f5db9ee0a495bf2e6ff9c91a7834c1ba4fdd244a5e8aa4e537bd38aeae4b073aa335b6040516001600160a01b03909116815260200160405180910390a150565b6000807f5ab42ced628888259c08ac98db1eb0cf702fc1501344311d8b100cd1bfe4bb006107ab565b610eb5611284565b600080516020611bee833981519152805460ff191660011781557f62e78cea01bee320cd4e420270b5ea74000d11b0c9f74754ebdbfc544b05a25833610e66565b7fa16a46d94261c7517cc8ff89f61c0ce93598e3c849801011dee649a6a557d1028054606091600080516020611bae8339815191529161044e90611a16565b60606000600080516020611bae83398151915261043d565b6000610423610f5a610d9e565b8360405161190160f01b8152600281019290925260228201526042902090565b600080600080610f8c888888886112b5565b925092509250610f9c8282611384565b50909695505050505050565b60006001600160e01b03198216630cccc66560e21b148061042357506301ffc9a760e01b6001600160e01b0319831614610423565b610fe561143d565b610b5f57604051631afcd79f60e31b815260040160405180910390fd5b61100a610fdd565b600080516020611b8e8339815191527f52c63247e1f47db19d5ce0460030c497f067ca4cebf71ba98eeadabe20bace036110448482611a97565b50600481016107208382611a97565b61105b610fdd565b600080516020611bae8339815191527fa16a46d94261c7517cc8ff89f61c0ce93598e3c849801011dee649a6a557d1026110958482611a97565b50600381016110a48382611a97565b5060008082556001909101555050565b600080516020611b8e8339815191526001600160a01b0385166110ed5760405163e602df0560e01b815260006004820152602401610856565b6001600160a01b03841661111757604051634a1406b160e11b815260006004820152602401610856565b6001600160a01b0380861660009081526001830160209081526040808320938816835292905220839055811561119557836001600160a01b0316856001600160a01b03167f8c5be1e5ebec7d5bd14f71427d1e84f3dd0314c0f7b2291e5b200ac8c7c3b9258560405161118c91815260200190565b60405180910390a35b5050505050565b6111a6828261089a565b610b535760405163e2517d3f60e01b81526001600160a01b038216600482015260248101839052604401610856565b610768838383611457565b60007f8b73c3c69bb8fe3d512ecc4cf759cc79239f7b179b0ffacaa9a75d522b39400f61120b61146a565b6112136114d4565b60408051602081019490945283019190915260608201524660808201523060a082015260c00160405160208183030381529060405280519060200120905090565b600080516020611bee8339815191525460ff16610b5f57604051638dfc202b60e01b815260040160405180910390fd5b600080516020611bee8339815191525460ff1615610b5f5760405163d93c066560e01b815260040160405180910390fd5b600080807f7fffffffffffffffffffffffffffffff5d576e7357a4501ddfe92f46681b20a08411156112f0575060009150600390508261137a565b604080516000808252602082018084528a905260ff891692820192909252606081018790526080810186905260019060a0016020604051602081039080840390855afa158015611344573d6000803e3d6000fd5b5050604051601f1901519150506001600160a01b0381166113705750600092506001915082905061137a565b9250600091508190505b9450945094915050565b600082600381111561139857611398611b56565b036113a1575050565b60018260038111156113b5576113b5611b56565b036113d35760405163f645eedf60e01b815260040160405180910390fd5b60028260038111156113e7576113e7611b56565b036114085760405163fce698f760e01b815260048101829052602401610856565b600382600381111561141c5761141c611b56565b03610b53576040516335e2f38360e21b815260048101829052602401610856565b6000611447610b18565b54600160401b900460ff16919050565b61145f611284565b610768838383611518565b6000600080516020611bae83398151915281611484610ef6565b80519091501561149c57805160209091012092915050565b815480156114ab579392505050565b7fc5d2460186f7233c927e7db2dcc703c0e500b653ca82273b7bfad8045d85a470935050505090565b6000600080516020611bae833981519152816114ee610f35565b80519091501561150657805160209091012092915050565b600182015480156114ab579392505050565b600080516020611b8e8339815191526001600160a01b03841661155457818160020160008282546115499190611b6c565b909155506115c69050565b6001600160a01b038416600090815260208290526040902054828110156115a75760405163391434e360e21b81526001600160a01b03861660048201526024810182905260448101849052606401610856565b6001600160a01b03851660009081526020839052604090209083900390555b6001600160a01b0383166115e4576002810180548390039055611603565b6001600160a01b03831660009081526020829052604090208054830190555b826001600160a01b0316846001600160a01b03167fddf252ad1be2c89b69c2b068fc378daa952ba7f163c4a11628f55a4df523b3ef8460405161164891815260200190565b60405180910390a350505050565b60006020828403121561166857600080fd5b81356001600160e01b03198116811461168057600080fd5b9392505050565b6000815180845260005b818110156116ad57602081850181015186830182015201611691565b506000602082860101526020601f19601f83011685010191505092915050565b6020815260006116806020830184611687565b634e487b7160e01b600052604160045260246000fd5b600082601f83011261170757600080fd5b813567ffffffffffffffff811115611721576117216116e0565b604051601f8201601f19908116603f0116810167ffffffffffffffff81118282101715611750576117506116e0565b60405281815283820160200185101561176857600080fd5b816020850160208301376000918101602001919091529392505050565b80356001600160a01b038116811461179c57600080fd5b919050565b6000806000606084860312156117b657600080fd5b833567ffffffffffffffff8111156117cd57600080fd5b6117d9868287016116f6565b935050602084013567ffffffffffffffff8111156117f657600080fd5b611802868287016116f6565b92505061181160408501611785565b90509250925092565b6000806040838503121561182d57600080fd5b61183683611785565b946020939093013593505050565b60008060006060848603121561185957600080fd5b61186284611785565b925061187060208501611785565b929592945050506040919091013590565b60006020828403121561189357600080fd5b5035919050565b600080604083850312156118ad57600080fd5b823591506118bd60208401611785565b90509250929050565b6000602082840312156118d857600080fd5b61168082611785565b60ff60f81b8816815260e06020820152600061190060e0830189611687565b82810360408401526119128189611687565b606084018890526001600160a01b038716608085015260a0840186905283810360c08501528451808252602080870193509091019060005b8181101561196857835183526020938401939092019160010161194a565b50909b9a5050505050505050505050565b600080600080600080600060e0888a03121561199457600080fd5b61199d88611785565b96506119ab60208901611785565b95506040880135945060608801359350608088013560ff811681146119cf57600080fd5b9699959850939692959460a0840135945060c09093013592915050565b600080604083850312156119ff57600080fd5b611a0883611785565b91506118bd60208401611785565b600181811c90821680611a2a57607f821691505b602082108103611a4a57634e487b7160e01b600052602260045260246000fd5b50919050565b601f82111561076857806000526020600020601f840160051c81016020851015611a775750805b601f840160051c820191505b818110156111955760008155600101611a83565b815167ffffffffffffffff811115611ab157611ab16116e0565b611ac581611abf8454611a16565b84611a50565b6020601f821160018114611af95760008315611ae15750848201515b600019600385901b1c1916600184901b178455611195565b600084815260208120601f198516915b82811015611b295787850151825560209485019460019092019101611b09565b5084821015611b475786840151600019600387901b60f8161c191681555b50505050600190811b01905550565b634e487b7160e01b600052602160045260246000fd5b8082018082111561042357634e487b7160e01b600052601160045260246000fdfe52c63247e1f47db19d5ce0460030c497f067ca4cebf71ba98eeadabe20bace00a16a46d94261c7517cc8ff89f61c0ce93598e3c849801011dee649a6a557d10002dd7bc7dec4dceedda775e58dd541e08a116c6c53815c0bd028192f7b626800cd5ed15c6e187e77e9aee88184c21f4f2182ab5827cb3b7e07fbedcd63f03300a264697066735822122052b9448d1c3ee0d23bbc3bb876248ae9b4d977f2f7a9c65ad912fa603f8aefd564736f6c634300081c0033",
  "linkReferences": {},
  "deployedLinkReferences": {}
}